{
  "contractName": "CrossChain",
  "abi": [
    {
      "inputs": [
        {
          "internalType": "string",
          "name": "_chainName",
          "type": "string"
        }
      ],
      "stateMutability": "nonpayable",
      "type": "constructor"
    },
    {
      "anonymous": false,
      "inputs": [
        {
          "indexed": true,
          "internalType": "address",
          "name": "to",
          "type": "address"
        },
        {
          "indexed": true,
          "internalType": "bytes4",
          "name": "action",
          "type": "bytes4"
        },
        {
          "indexed": false,
          "internalType": "bytes",
          "name": "sender",
          "type": "bytes"
        },
        {
          "indexed": false,
          "internalType": "uint256",
          "name": "errorCode",
          "type": "uint256"
        }
      ],
      "name": "ExecuteFailed",
      "type": "event"
    },
    {
      "anonymous": false,
      "inputs": [
        {
          "indexed": true,
          "internalType": "address",
          "name": "to",
          "type": "address"
        },
        {
          "indexed": true,
          "internalType": "bytes4",
          "name": "action",
          "type": "bytes4"
        },
        {
          "indexed": false,
          "internalType": "bytes",
          "name": "sender",
          "type": "bytes"
        }
      ],
      "name": "MessageExecuted",
      "type": "event"
    },
    {
      "anonymous": false,
      "inputs": [
        {
          "indexed": true,
          "internalType": "address",
          "name": "previousOwner",
          "type": "address"
        },
        {
          "indexed": true,
          "internalType": "address",
          "name": "newOwner",
          "type": "address"
        }
      ],
      "name": "OwnershipTransferred",
      "type": "event"
    },
    {
      "anonymous": false,
      "inputs": [
        {
          "indexed": false,
          "internalType": "string",
          "name": "chainName",
          "type": "string"
        },
        {
          "indexed": false,
          "internalType": "uint256",
          "name": "id",
          "type": "uint256"
        },
        {
          "indexed": false,
          "internalType": "uint256",
          "name": "errorCode",
          "type": "uint256"
        }
      ],
      "name": "Verification",
      "type": "event"
    },
    {
      "inputs": [],
      "name": "chainName",
      "outputs": [
        {
          "internalType": "string",
          "name": "",
          "type": "string"
        }
      ],
      "stateMutability": "view",
      "type": "function",
      "constant": true
    },
    {
      "inputs": [
        {
          "internalType": "string",
          "name": "_chainName",
          "type": "string"
        },
        {
          "internalType": "uint256",
          "name": "_id",
          "type": "uint256"
        }
      ],
      "name": "executeMessage",
      "outputs": [],
      "stateMutability": "nonpayable",
      "type": "function"
    },
    {
      "inputs": [],
      "name": "getCurrentMessage",
      "outputs": [
        {
          "components": [
            {
              "internalType": "uint256",
              "name": "id",
              "type": "uint256"
            },
            {
              "internalType": "string",
              "name": "fromChain",
              "type": "string"
            },
            {
              "internalType": "bytes",
              "name": "sender",
              "type": "bytes"
            },
            {
              "internalType": "bytes",
              "name": "signer",
              "type": "bytes"
            },
            {
              "components": [
                {
                  "internalType": "enum SQoSType",
                  "name": "t",
                  "type": "uint8"
                },
                {
                  "internalType": "bytes",
                  "name": "v",
                  "type": "bytes"
                }
              ],
              "internalType": "struct SQoS[]",
              "name": "sqos",
              "type": "tuple[]"
            },
            {
              "internalType": "address",
              "name": "contractAddress",
              "type": "address"
            },
            {
              "internalType": "bytes4",
              "name": "action",
              "type": "bytes4"
            },
            {
              "components": [
                {
                  "internalType": "uint256",
                  "name": "id",
                  "type": "uint256"
                },
                {
                  "internalType": "uint8",
                  "name": "sessionType",
                  "type": "uint8"
                },
                {
                  "internalType": "bytes",
                  "name": "callback",
                  "type": "bytes"
                },
                {
                  "internalType": "bytes",
                  "name": "commitment",
                  "type": "bytes"
                },
                {
                  "internalType": "bytes",
                  "name": "answer",
                  "type": "bytes"
                }
              ],
              "internalType": "struct Session",
              "name": "session",
              "type": "tuple"
            }
          ],
          "internalType": "struct SimplifiedMessage",
          "name": "",
          "type": "tuple"
        }
      ],
      "stateMutability": "view",
      "type": "function",
      "constant": true
    },
    {
      "inputs": [
        {
          "internalType": "string",
          "name": "_chainName",
          "type": "string"
        }
      ],
      "name": "getExecutableMessageId",
      "outputs": [
        {
          "internalType": "uint256",
          "name": "",
          "type": "uint256"
        }
      ],
      "stateMutability": "view",
      "type": "function",
      "constant": true
    },
    {
      "inputs": [
        {
          "internalType": "string",
          "name": "_chainName",
          "type": "string"
        },
        {
          "internalType": "uint256",
          "name": "_id",
          "type": "uint256"
        }
      ],
      "name": "getReceivedMessage",
      "outputs": [
        {
          "components": [
            {
              "internalType": "uint256",
              "name": "id",
              "type": "uint256"
            },
            {
              "internalType": "string",
              "name": "fromChain",
              "type": "string"
            },
            {
              "internalType": "bytes",
              "name": "sender",
              "type": "bytes"
            },
            {
              "internalType": "bytes",
              "name": "signer",
              "type": "bytes"
            },
            {
              "components": [
                {
                  "internalType": "enum SQoSType",
                  "name": "t",
                  "type": "uint8"
                },
                {
                  "internalType": "bytes",
                  "name": "v",
                  "type": "bytes"
                }
              ],
              "internalType": "struct SQoS[]",
              "name": "sqos",
              "type": "tuple[]"
            },
            {
              "internalType": "address",
              "name": "contractAddress",
              "type": "address"
            },
            {
              "internalType": "bytes4",
              "name": "action",
              "type": "bytes4"
            },
            {
              "components": [
                {
                  "components": [
                    {
                      "internalType": "string",
                      "name": "name",
                      "type": "string"
                    },
                    {
                      "internalType": "enum MsgType",
                      "name": "msgType",
                      "type": "uint8"
                    },
                    {
                      "internalType": "bytes",
                      "name": "value",
                      "type": "bytes"
                    }
                  ],
                  "internalType": "struct PayloadItem[]",
                  "name": "items",
                  "type": "tuple[]"
                }
              ],
              "internalType": "struct Payload",
              "name": "data",
              "type": "tuple"
            },
            {
              "components": [
                {
                  "internalType": "uint256",
                  "name": "id",
                  "type": "uint256"
                },
                {
                  "internalType": "uint8",
                  "name": "sessionType",
                  "type": "uint8"
                },
                {
                  "internalType": "bytes",
                  "name": "callback",
                  "type": "bytes"
                },
                {
                  "internalType": "bytes",
                  "name": "commitment",
                  "type": "bytes"
                },
                {
                  "internalType": "bytes",
                  "name": "answer",
                  "type": "bytes"
                }
              ],
              "internalType": "struct Session",
              "name": "session",
              "type": "tuple"
            },
            {
              "internalType": "bool",
              "name": "executed",
              "type": "bool"
            },
            {
              "internalType": "uint256",
              "name": "errorCode",
              "type": "uint256"
            }
          ],
          "internalType": "struct ReceivedMessage",
          "name": "",
          "type": "tuple"
        }
      ],
      "stateMutability": "view",
      "type": "function",
      "constant": true
    },
    {
      "inputs": [
        {
          "internalType": "string",
          "name": "_chainName",
          "type": "string"
        }
      ],
      "name": "getReceivedMessageNumber",
      "outputs": [
        {
          "internalType": "uint256",
          "name": "",
          "type": "uint256"
        }
      ],
      "stateMutability": "view",
      "type": "function",
      "constant": true
    },
    {
      "inputs": [
        {
          "internalType": "string",
          "name": "_chainName",
          "type": "string"
        },
        {
          "internalType": "uint256",
          "name": "_id",
          "type": "uint256"
        }
      ],
      "name": "getSentMessage",
      "outputs": [
        {
          "components": [
            {
              "internalType": "uint256",
              "name": "id",
              "type": "uint256"
            },
            {
              "internalType": "string",
              "name": "fromChain",
              "type": "string"
            },
            {
              "internalType": "string",
              "name": "toChain",
              "type": "string"
            },
            {
              "internalType": "bytes",
              "name": "sender",
              "type": "bytes"
            },
            {
              "internalType": "bytes",
              "name": "signer",
              "type": "bytes"
            },
            {
              "components": [
                {
                  "internalType": "enum SQoSType",
                  "name": "t",
                  "type": "uint8"
                },
                {
                  "internalType": "bytes",
                  "name": "v",
                  "type": "bytes"
                }
              ],
              "internalType": "struct SQoS[]",
              "name": "sqos",
              "type": "tuple[]"
            },
            {
              "components": [
                {
                  "internalType": "bytes",
                  "name": "contractAddress",
                  "type": "bytes"
                },
                {
                  "internalType": "bytes",
                  "name": "action",
                  "type": "bytes"
                },
                {
                  "components": [
                    {
                      "components": [
                        {
                          "internalType": "string",
                          "name": "name",
                          "type": "string"
                        },
                        {
                          "internalType": "enum MsgType",
                          "name": "msgType",
                          "type": "uint8"
                        },
                        {
                          "internalType": "bytes",
                          "name": "value",
                          "type": "bytes"
                        }
                      ],
                      "internalType": "struct PayloadItem[]",
                      "name": "items",
                      "type": "tuple[]"
                    }
                  ],
                  "internalType": "struct Payload",
                  "name": "data",
                  "type": "tuple"
                }
              ],
              "internalType": "struct Content",
              "name": "content",
              "type": "tuple"
            },
            {
              "components": [
                {
                  "internalType": "uint256",
                  "name": "id",
                  "type": "uint256"
                },
                {
                  "internalType": "uint8",
                  "name": "sessionType",
                  "type": "uint8"
                },
                {
                  "internalType": "bytes",
                  "name": "callback",
                  "type": "bytes"
                },
                {
                  "internalType": "bytes",
                  "name": "commitment",
                  "type": "bytes"
                },
                {
                  "internalType": "bytes",
                  "name": "answer",
                  "type": "bytes"
                }
              ],
              "internalType": "struct Session",
              "name": "session",
              "type": "tuple"
            }
          ],
          "internalType": "struct SentMessage",
          "name": "",
          "type": "tuple"
        }
      ],
      "stateMutability": "view",
      "type": "function",
      "constant": true
    },
    {
      "inputs": [
        {
          "internalType": "string",
          "name": "_chainName",
          "type": "string"
        }
      ],
      "name": "getSentMessageNumber",
      "outputs": [
        {
          "internalType": "uint256",
          "name": "",
          "type": "uint256"
        }
      ],
      "stateMutability": "view",
      "type": "function",
      "constant": true
    },
    {
      "inputs": [],
      "name": "owner",
      "outputs": [
        {
          "internalType": "address",
          "name": "",
          "type": "address"
        }
      ],
      "stateMutability": "view",
      "type": "function",
      "constant": true
    },
    {
      "inputs": [],
      "name": "renounceOwnership",
      "outputs": [],
      "stateMutability": "nonpayable",
      "type": "function"
    },
    {
      "inputs": [
        {
          "components": [
            {
              "internalType": "string",
              "name": "toChain",
              "type": "string"
            },
            {
              "components": [
                {
                  "internalType": "enum SQoSType",
                  "name": "t",
                  "type": "uint8"
                },
                {
                  "internalType": "bytes",
                  "name": "v",
                  "type": "bytes"
                }
              ],
              "internalType": "struct SQoS[]",
              "name": "sqos",
              "type": "tuple[]"
            },
            {
              "components": [
                {
                  "internalType": "bytes",
                  "name": "contractAddress",
                  "type": "bytes"
                },
                {
                  "internalType": "bytes",
                  "name": "action",
                  "type": "bytes"
                },
                {
                  "components": [
                    {
                      "components": [
                        {
                          "internalType": "string",
                          "name": "name",
                          "type": "string"
                        },
                        {
                          "internalType": "enum MsgType",
                          "name": "msgType",
                          "type": "uint8"
                        },
                        {
                          "internalType": "bytes",
                          "name": "value",
                          "type": "bytes"
                        }
                      ],
                      "internalType": "struct PayloadItem[]",
                      "name": "items",
                      "type": "tuple[]"
                    }
                  ],
                  "internalType": "struct Payload",
                  "name": "data",
                  "type": "tuple"
                }
              ],
              "internalType": "struct Content",
              "name": "content",
              "type": "tuple"
            },
            {
              "components": [
                {
                  "internalType": "uint256",
                  "name": "id",
                  "type": "uint256"
                },
                {
                  "internalType": "uint8",
                  "name": "sessionType",
                  "type": "uint8"
                },
                {
                  "internalType": "bytes",
                  "name": "callback",
                  "type": "bytes"
                },
                {
                  "internalType": "bytes",
                  "name": "commitment",
                  "type": "bytes"
                },
                {
                  "internalType": "bytes",
                  "name": "answer",
                  "type": "bytes"
                }
              ],
              "internalType": "struct Session",
              "name": "session",
              "type": "tuple"
            }
          ],
          "internalType": "struct ISentMessage",
          "name": "_message",
          "type": "tuple"
        }
      ],
      "name": "sendMessage",
      "outputs": [
        {
          "internalType": "uint256",
          "name": "",
          "type": "uint256"
        }
      ],
      "stateMutability": "nonpayable",
      "type": "function"
    },
    {
      "inputs": [
        {
          "internalType": "address",
          "name": "_address",
          "type": "address"
        }
      ],
      "name": "setTokenContract",
      "outputs": [],
      "stateMutability": "nonpayable",
      "type": "function"
    },
    {
      "inputs": [],
      "name": "tokenContract",
      "outputs": [
        {
          "internalType": "contract DanteToken",
          "name": "",
          "type": "address"
        }
      ],
      "stateMutability": "view",
      "type": "function",
      "constant": true
    },
    {
      "inputs": [
        {
          "internalType": "address",
          "name": "newOwner",
          "type": "address"
        }
      ],
      "name": "transferOwnership",
      "outputs": [],
      "stateMutability": "nonpayable",
      "type": "function"
    },
    {
      "inputs": [
        {
          "components": [
            {
              "internalType": "uint256",
              "name": "id",
              "type": "uint256"
            },
            {
              "internalType": "string",
              "name": "fromChain",
              "type": "string"
            },
            {
              "internalType": "string",
              "name": "toChain",
              "type": "string"
            },
            {
              "internalType": "bytes",
              "name": "sender",
              "type": "bytes"
            },
            {
              "internalType": "bytes",
              "name": "signer",
              "type": "bytes"
            },
            {
              "components": [
                {
                  "internalType": "enum SQoSType",
                  "name": "t",
                  "type": "uint8"
                },
                {
                  "internalType": "bytes",
                  "name": "v",
                  "type": "bytes"
                }
              ],
              "internalType": "struct SQoS[]",
              "name": "sqos",
              "type": "tuple[]"
            },
            {
              "internalType": "address",
              "name": "contractAddress",
              "type": "address"
            },
            {
              "internalType": "bytes4",
              "name": "action",
              "type": "bytes4"
            },
            {
              "components": [
                {
                  "components": [
                    {
                      "internalType": "string",
                      "name": "name",
                      "type": "string"
                    },
                    {
                      "internalType": "enum MsgType",
                      "name": "msgType",
                      "type": "uint8"
                    },
                    {
                      "internalType": "bytes",
                      "name": "value",
                      "type": "bytes"
                    }
                  ],
                  "internalType": "struct PayloadItem[]",
                  "name": "items",
                  "type": "tuple[]"
                }
              ],
              "internalType": "struct Payload",
              "name": "data",
              "type": "tuple"
            },
            {
              "components": [
                {
                  "internalType": "uint256",
                  "name": "id",
                  "type": "uint256"
                },
                {
                  "internalType": "uint8",
                  "name": "sessionType",
                  "type": "uint8"
                },
                {
                  "internalType": "bytes",
                  "name": "callback",
                  "type": "bytes"
                },
                {
                  "internalType": "bytes",
                  "name": "commitment",
                  "type": "bytes"
                },
                {
                  "internalType": "bytes",
                  "name": "answer",
                  "type": "bytes"
                }
              ],
              "internalType": "struct Session",
              "name": "session",
              "type": "tuple"
            },
            {
              "internalType": "uint256",
              "name": "errorCode",
              "type": "uint256"
            }
          ],
          "internalType": "struct IReceivedMessage",
          "name": "_message",
          "type": "tuple"
        }
      ],
      "name": "receiveMessage",
      "outputs": [],
      "stateMutability": "nonpayable",
      "type": "function"
    },
    {
      "inputs": [
        {
          "internalType": "string",
          "name": "_fromChain",
          "type": "string"
        },
        {
          "internalType": "uint256",
          "name": "_id",
          "type": "uint256"
        },
        {
          "internalType": "uint256",
          "name": "_errorCode",
          "type": "uint256"
        }
      ],
      "name": "abandonMessage",
      "outputs": [],
      "stateMutability": "nonpayable",
      "type": "function"
    },
    {
      "inputs": [
        {
          "internalType": "string",
          "name": "chainName",
          "type": "string"
        },
        {
          "internalType": "address",
          "name": "router",
          "type": "address"
        }
      ],
      "name": "getNextMessageId",
      "outputs": [
        {
          "internalType": "uint256",
          "name": "",
          "type": "uint256"
        }
      ],
      "stateMutability": "view",
      "type": "function",
      "constant": true
    },
    {
      "inputs": [
        {
          "internalType": "address",
          "name": "_address",
          "type": "address"
        }
      ],
      "name": "setRouterCoreContractAddress",
      "outputs": [],
      "stateMutability": "nonpayable",
      "type": "function"
    },
    {
      "inputs": [
        {
          "internalType": "string",
          "name": "chainName",
          "type": "string"
        }
      ],
      "name": "clearCrossChainMessage",
      "outputs": [],
      "stateMutability": "nonpayable",
      "type": "function"
    }
  ],
  "bytecode": "0x60806040523480156200001157600080fd5b5060405162005a2738038062005a2783398101604081905262000034916200016a565b8062000040336200005e565b805162000055906001906020840190620000ae565b50505062000283565b600080546001600160a01b038381166001600160a01b0319831681178455604051919092169283917f8be0079c531659141344cd1fd0a4f28419497f9722a3daafe3b4186f6b6457e09190a35050565b828054620000bc9062000246565b90600052602060002090601f016020900481019282620000e057600085556200012b565b82601f10620000fb57805160ff19168380011785556200012b565b828001600101855582156200012b579182015b828111156200012b5782518255916020019190600101906200010e565b50620001399291506200013d565b5090565b5b808211156200013957600081556001016200013e565b634e487b7160e01b600052604160045260246000fd5b600060208083850312156200017e57600080fd5b82516001600160401b03808211156200019657600080fd5b818501915085601f830112620001ab57600080fd5b815181811115620001c057620001c062000154565b604051601f8201601f19908116603f01168101908382118183101715620001eb57620001eb62000154565b8160405282815288868487010111156200020457600080fd5b600093505b8284101562000228578484018601518185018701529285019262000209565b828411156200023a5760008684830101525b98975050505050505050565b600181811c908216806200025b57607f821691505b602082108114156200027d57634e487b7160e01b600052602260045260246000fd5b50919050565b61579480620002936000396000f3fe608060405234801561001057600080fd5b50600436106101215760003560e01c80638da5cb5b116100ad578063c383221411610071578063c383221414610261578063c8bcd11314610281578063ce700e8014610294578063debcd46e146102a7578063f2fde38b146102ba57600080fd5b80638da5cb5b146101f55780638e3db313146102065780639af7a48c14610226578063a4b97e391461023b578063bbcd5bbe1461024e57600080fd5b80633070c012116100f45780633070c01214610189578063320befc81461019c578063320c180e146101af57806355a373d6146101c2578063715018a6146101ed57600080fd5b8063086615c2146101265780631c93b03a1461014c5780632eb4358c146101615780632f260fd714610176575b600080fd5b610139610134366004613ef7565b6102cd565b6040519081526020015b60405180910390f35b6101546102fc565b6040516101439190613f90565b61017461016f366004613fa3565b61038a565b005b610139610184366004613ff3565b610499565b610174610197366004614052565b610753565b6101746101aa366004613ef7565b61079f565b6101396101bd36600461406f565b610ae0565b6002546101d5906001600160a01b031681565b6040516001600160a01b039091168152602001610143565b610174610be1565b6000546001600160a01b03166101d5565b6102196102143660046140c5565b610c17565b60405161014391906142fe565b61022e6114da565b60405161014391906143e0565b610139610249366004613ef7565b6119e8565b61017461025c366004614052565b611a45565b61027461026f3660046140c5565b611a91565b60405161014391906144b1565b61017461028f3660046145ce565b6121b0565b6101746102a23660046140c5565b612270565b6101396102b5366004613ef7565b612853565b6101746102c8366004614052565b61287e565b600080600384846040516102e2929190614609565b908152604051908190036020019020549150505b92915050565b6001805461030990614619565b80601f016020809104026020016040519081016040528092919081815260200182805461033590614619565b80156103825780601f1061035757610100808354040283529160200191610382565b820191906000526020600020905b81548152906001019060200180831161036557829003601f168201915b505050505081565b60135460405163695940fb60e11b81523360048201526001600160a01b039091169063d2b281f690602401602060405180830381865afa1580156103d2573d6000803e3d6000fd5b505050506040513d601f19601f820116820180604052508101906103f69190614654565b61043b5760405162461bcd60e51b815260206004820152601160248201527021b0b63632b9103737ba103937baba32b960791b60448201526064015b60405180910390fd5b610443613750565b84848080601f0160208091040260200160405190810160405280939291908181526020018383808284376000920191909152505050506020820152828152610140810182905261049281612916565b5050505050565b60008060036104a88480614676565b6040516104b6929190614609565b9081526040516020918190038201902080546001808201808455600084815294909420600e9092029091019283558054919350828101916104f690614619565b6105019291906137d7565b5061050c8480614676565b61051a916002840191613862565b506040516bffffffffffffffffffffffff193360601b16602082015260340160405160208183030381529060405281600301908051906020019061055f9291906138d6565b506040516bffffffffffffffffffffffff193260601b1660208201526034016040516020818303038152906040528160040190805190602001906105a49291906138d6565b506105b260608501856146bc565b600982016105c0828261481e565b506105d090506040850185614898565b6105da9080614676565b6105e8916006840191613862565b506105f66040850185614898565b610604906020810190614676565b610612916007840191613862565b5060005b6106236040860186614898565b6106319060408101906148ae565b61063b90806148c4565b90508110156106c657600882016106556040870187614898565b6106639060408101906148ae565b61066d90806148c4565b8381811061067d5761067d61490d565b905060200281019061068f9190614898565b8154600181018355600092835260209092209091600302016106b18282614960565b505080806106be90614a6a565b915050610616565b5060005b6106d760208601866148c4565b905081101561074a57600582016106f160208701876148c4565b838181106107015761070161490d565b90506020028101906107139190614a85565b8154600181018355600092835260209092209091600202016107358282614aa8565b5050808061074290614a6a565b9150506106ca565b50549392505050565b6000546001600160a01b0316331461077d5760405162461bcd60e51b815260040161043290614b9f565b601380546001600160a01b0319166001600160a01b0392909216919091179055565b6000546001600160a01b031633146107c95760405162461bcd60e51b815260040161043290614b9f565b601482826040516107db929190614609565b908152602001604051809103902060006107f5919061394a565b60158282604051610807929190614609565b908152602001604051809103902060006108219190613968565b60038282604051610833929190614609565b9081526020016040518091039020600061084d9190613986565b6005828260405161085f929190614609565b90815260200160405180910390206000905560068282604051610883929190614609565b9081526020016040518091039020600061089d9190613968565b600782826040516108af929190614609565b908152602001604051809103902060006108c99190613968565b60135460408051637c4618e760e11b815290516000926001600160a01b03169163f88c31ce91600480830192869291908290030181865afa158015610912573d6000803e3d6000fd5b505050506040513d6000823e601f3d908101601f1916820160405261093a9190810190614cd8565b905060005b81518110156109bb576016848460405161095a929190614609565b9081526020016040518091039020600083838151811061097c5761097c61490d565b60200260200101516001600160a01b03166001600160a01b031681526020019081526020016000206000905580806109b390614a6a565b91505061093f565b5060005b600584846040516109d1929190614609565b908152602001604051809103902054811015610ada57600484846040516109f9929190614609565b908152604080516020928190038301902060008481529252812081815590610a2460018301826139a7565b610a326002830160006139a7565b610a406003830160006139a7565b610a4e6004830160006139e1565b6005820180546001600160c01b0319169055600682016000610a708282613a02565b505060006007830181815560088401805460ff1916905590610a9560098501826139a7565b610aa36003830160006139a7565b610ab16004830160006139a7565b505050600c8101805460ff191690556000600d9091015580610ad281614a6a565b9150506109bf565b50505050565b60008060158585604051610af5929190614609565b90815260200160405180910390209050600060168686604051610b19929190614609565b90815260408051602092819003830190206001600160a01b0387166000908152925281205491505b8254811015610ba75781838281548110610b5d57610b5d61490d565b90600052602060002001541115610b9557828181548110610b8057610b8061490d565b90600052602060002001549350505050610bda565b80610b9f81614a6a565b915050610b41565b5060148686604051610bba929190614609565b90815260405190819003602001902054610bd5906001614d76565b925050505b9392505050565b6000546001600160a01b03163314610c0b5760405162461bcd60e51b815260040161043290614b9f565b610c1560006132db565b565b610c1f613a23565b600060038585604051610c33929190614609565b908152604051908190036020019020905080610c50600185614d8e565b81548110610c6057610c6061490d565b90600052602060002090600e02016040518061010001604052908160008201548152602001600182018054610c9490614619565b80601f0160208091040260200160405190810160405280929190818152602001828054610cc090614619565b8015610d0d5780601f10610ce257610100808354040283529160200191610d0d565b820191906000526020600020905b815481529060010190602001808311610cf057829003601f168201915b50505050508152602001600282018054610d2690614619565b80601f0160208091040260200160405190810160405280929190818152602001828054610d5290614619565b8015610d9f5780601f10610d7457610100808354040283529160200191610d9f565b820191906000526020600020905b815481529060010190602001808311610d8257829003601f168201915b50505050508152602001600382018054610db890614619565b80601f0160208091040260200160405190810160405280929190818152602001828054610de490614619565b8015610e315780601f10610e0657610100808354040283529160200191610e31565b820191906000526020600020905b815481529060010190602001808311610e1457829003601f168201915b50505050508152602001600482018054610e4a90614619565b80601f0160208091040260200160405190810160405280929190818152602001828054610e7690614619565b8015610ec35780601f10610e9857610100808354040283529160200191610ec3565b820191906000526020600020905b815481529060010190602001808311610ea657829003601f168201915b5050505050815260200160058201805480602002602001604051908101604052809291908181526020016000905b82821015610fe15760008481526020902060408051808201909152600284029091018054829060ff166009811115610f2b57610f2b614110565b6009811115610f3c57610f3c614110565b8152602001600182018054610f5090614619565b80601f0160208091040260200160405190810160405280929190818152602001828054610f7c90614619565b8015610fc95780601f10610f9e57610100808354040283529160200191610fc9565b820191906000526020600020905b815481529060010190602001808311610fac57829003601f168201915b50505050508152505081526020019060010190610ef1565b5050505081526020016006820160405180606001604052908160008201805461100990614619565b80601f016020809104026020016040519081016040528092919081815260200182805461103590614619565b80156110825780601f1061105757610100808354040283529160200191611082565b820191906000526020600020905b81548152906001019060200180831161106557829003601f168201915b5050505050815260200160018201805461109b90614619565b80601f01602080910402602001604051908101604052809291908181526020018280546110c790614619565b80156111145780601f106110e957610100808354040283529160200191611114565b820191906000526020600020905b8154815290600101906020018083116110f757829003601f168201915b505050505081526020016002820160405180602001604052908160008201805480602002602001604051908101604052809291908181526020016000905b828210156112db578382906000526020600020906003020160405180606001604052908160008201805461118590614619565b80601f01602080910402602001604051908101604052809291908181526020018280546111b190614619565b80156111fe5780601f106111d3576101008083540402835291602001916111fe565b820191906000526020600020905b8154815290600101906020018083116111e157829003601f168201915b5050509183525050600182015460209091019060ff16601681111561122557611225614110565b601681111561123657611236614110565b815260200160028201805461124a90614619565b80601f016020809104026020016040519081016040528092919081815260200182805461127690614619565b80156112c35780601f10611298576101008083540402835291602001916112c3565b820191906000526020600020905b8154815290600101906020018083116112a657829003601f168201915b50505050508152505081526020019060010190611152565b5050509152505090525081526040805160a0810182526009840180548252600a85015460ff16602083810191909152600b86018054919095019492939192918401919061132790614619565b80601f016020809104026020016040519081016040528092919081815260200182805461135390614619565b80156113a05780601f10611375576101008083540402835291602001916113a0565b820191906000526020600020905b81548152906001019060200180831161138357829003601f168201915b505050505081526020016003820180546113b990614619565b80601f01602080910402602001604051908101604052809291908181526020018280546113e590614619565b80156114325780601f1061140757610100808354040283529160200191611432565b820191906000526020600020905b81548152906001019060200180831161141557829003601f168201915b5050505050815260200160048201805461144b90614619565b80601f016020809104026020016040519081016040528092919081815260200182805461147790614619565b80156114c45780601f10611499576101008083540402835291602001916114c4565b820191906000526020600020905b8154815290600101906020018083116114a757829003601f168201915b5050509190925250505090525095945050505050565b6114e2613a73565b6040805161010081019091526008805482526009805460208401919061150790614619565b80601f016020809104026020016040519081016040528092919081815260200182805461153390614619565b80156115805780601f1061155557610100808354040283529160200191611580565b820191906000526020600020905b81548152906001019060200180831161156357829003601f168201915b5050505050815260200160028201805461159990614619565b80601f01602080910402602001604051908101604052809291908181526020018280546115c590614619565b80156116125780601f106115e757610100808354040283529160200191611612565b820191906000526020600020905b8154815290600101906020018083116115f557829003601f168201915b5050505050815260200160038201805461162b90614619565b80601f016020809104026020016040519081016040528092919081815260200182805461165790614619565b80156116a45780601f10611679576101008083540402835291602001916116a4565b820191906000526020600020905b81548152906001019060200180831161168757829003601f168201915b5050505050815260200160048201805480602002602001604051908101604052809291908181526020016000905b828210156117c25760008481526020902060408051808201909152600284029091018054829060ff16600981111561170c5761170c614110565b600981111561171d5761171d614110565b815260200160018201805461173190614619565b80601f016020809104026020016040519081016040528092919081815260200182805461175d90614619565b80156117aa5780601f1061177f576101008083540402835291602001916117aa565b820191906000526020600020905b81548152906001019060200180831161178d57829003601f168201915b505050505081525050815260200190600101906116d2565b5050509082525060058201546001600160a01b038116602080840191909152600160a01b90910460e01b6001600160e01b031916604080840191909152805160a0810182526006850180548252600786015460ff169382019390935260088501805460609095019491939284019161183990614619565b80601f016020809104026020016040519081016040528092919081815260200182805461186590614619565b80156118b25780601f10611887576101008083540402835291602001916118b2565b820191906000526020600020905b81548152906001019060200180831161189557829003601f168201915b505050505081526020016003820180546118cb90614619565b80601f01602080910402602001604051908101604052809291908181526020018280546118f790614619565b80156119445780601f1061191957610100808354040283529160200191611944565b820191906000526020600020905b81548152906001019060200180831161192757829003601f168201915b5050505050815260200160048201805461195d90614619565b80601f016020809104026020016040519081016040528092919081815260200182805461198990614619565b80156119d65780601f106119ab576101008083540402835291602001916119d6565b820191906000526020600020905b8154815290600101906020018083116119b957829003601f168201915b50505050508152505081525050905090565b600080600684846040516119fd929190614609565b9081526040519081900360200190208054909150611a1f5760009150506102f6565b80600081548110611a3257611a3261490d565b90600052602060002001549150506102f6565b6000546001600160a01b03163314611a6f5760405162461bcd60e51b815260040161043290614b9f565b600280546001600160a01b0319166001600160a01b0392909216919091179055565b611a99613acb565b600060048585604051611aad929190614609565b90815260408051918290036020908101832060008781528183528390206101608501909352825484526001830180549195509184019190611aed90614619565b80601f0160208091040260200160405190810160405280929190818152602001828054611b1990614619565b8015611b665780601f10611b3b57610100808354040283529160200191611b66565b820191906000526020600020905b815481529060010190602001808311611b4957829003601f168201915b50505050508152602001600282018054611b7f90614619565b80601f0160208091040260200160405190810160405280929190818152602001828054611bab90614619565b8015611bf85780601f10611bcd57610100808354040283529160200191611bf8565b820191906000526020600020905b815481529060010190602001808311611bdb57829003601f168201915b50505050508152602001600382018054611c1190614619565b80601f0160208091040260200160405190810160405280929190818152602001828054611c3d90614619565b8015611c8a5780601f10611c5f57610100808354040283529160200191611c8a565b820191906000526020600020905b815481529060010190602001808311611c6d57829003601f168201915b5050505050815260200160048201805480602002602001604051908101604052809291908181526020016000905b82821015611da85760008481526020902060408051808201909152600284029091018054829060ff166009811115611cf257611cf2614110565b6009811115611d0357611d03614110565b8152602001600182018054611d1790614619565b80601f0160208091040260200160405190810160405280929190818152602001828054611d4390614619565b8015611d905780601f10611d6557610100808354040283529160200191611d90565b820191906000526020600020905b815481529060010190602001808311611d7357829003601f168201915b50505050508152505081526020019060010190611cb8565b5050509082525060058201546001600160a01b038116602080840191909152600160a01b90910460e01b6001600160e01b031916604080840191909152805160068501805480850283018401845293820184815260609095019491939092849291849160009085015b82821015611f9a5783829060005260206000209060030201604051806060016040529081600082018054611e4490614619565b80601f0160208091040260200160405190810160405280929190818152602001828054611e7090614619565b8015611ebd5780601f10611e9257610100808354040283529160200191611ebd565b820191906000526020600020905b815481529060010190602001808311611ea057829003601f168201915b5050509183525050600182015460209091019060ff166016811115611ee457611ee4614110565b6016811115611ef557611ef5614110565b8152602001600282018054611f0990614619565b80601f0160208091040260200160405190810160405280929190818152602001828054611f3590614619565b8015611f825780601f10611f5757610100808354040283529160200191611f82565b820191906000526020600020905b815481529060010190602001808311611f6557829003601f168201915b50505050508152505081526020019060010190611e11565b5050509152505081526040805160a0810182526007840180548252600885015460ff166020838101919091526009860180549190950194929391929184019190611fe390614619565b80601f016020809104026020016040519081016040528092919081815260200182805461200f90614619565b801561205c5780601f106120315761010080835404028352916020019161205c565b820191906000526020600020905b81548152906001019060200180831161203f57829003601f168201915b5050505050815260200160038201805461207590614619565b80601f01602080910402602001604051908101604052809291908181526020018280546120a190614619565b80156120ee5780601f106120c3576101008083540402835291602001916120ee565b820191906000526020600020905b8154815290600101906020018083116120d157829003601f168201915b5050505050815260200160048201805461210790614619565b80601f016020809104026020016040519081016040528092919081815260200182805461213390614619565b80156121805780601f1061215557610100808354040283529160200191612180565b820191906000526020600020905b81548152906001019060200180831161216357829003601f168201915b505050919092525050508152600c82015460ff1615156020820152600d9091015460409091015295945050505050565b60135460405163695940fb60e11b81523360048201526001600160a01b039091169063d2b281f690602401602060405180830381865afa1580156121f8573d6000803e3d6000fd5b505050506040513d601f19601f8201168201806040525081019061221c9190614654565b61225c5760405162461bcd60e51b815260206004820152601160248201527021b0b63632b9103737ba103937baba32b960791b6044820152606401610432565b61226d612268826150e4565b612916565b50565b600060068484604051612284929190614609565b908152602001604051809103902090506000805b825481101561235157838382815481106122b4576122b461490d565b9060005260206000200154141561233f57825483906122d590600190614d8e565b815481106122e5576122e561490d565b90600052602060002001548382815481106123025761230261490d565b90600052602060002001819055508280548061232057612320615248565b6001900381819060005260206000200160009055905560019150612351565b8061234981614a6a565b915050612298565b508061239f5760405162461bcd60e51b815260206004820152601a60248201527f546865206d657373616765206e6f742065786563757461626c650000000000006044820152606401610432565b6000600486866040516123b3929190614609565b90815260408051602092819003830181206000888152935290822060058101549093506123f79189918991600160a01b90910460e01b9060028701906024016152d5565b60408051601f198184030181529181526020820180516001600160e01b03166324a2734360e11b179052600584015490519192506000916001600160a01b0390911690612445908490615322565b6000604051808303816000865af19150503d8060008114612482576040519150601f19603f3d011682016040523d82523d6000602084013e612487565b606091505b50509050806124fc5760058301546040516001600160e01b0319600160a01b830460e01b16916001600160a01b0316907f3a2f8f101234fe7b48ed2373917761c568f6bb1d9984e1d77bcb59a3c37667c7906124ea906002880190600090615334565b60405180910390a35050505050505050565b82546008556001830180546009919061251490614619565b61251f9291906137d7565b50600283018054600a919061253390614619565b61253e9291906137d7565b50600383018054600b919061255290614619565b61255d9291906137d7565b5060048301805461257091600c91613b52565b50600583018054600d80546001600160a01b031981166001600160a01b039093169283178255925463ffffffff600160a01b9182900416026001600160c01b0319909316909117919091179055600783018054600e9081556008850154600f805460ff191660ff909216919091179055600985018054601091906125f390614619565b6125fe9291906137d7565b50600382018160030190805461261390614619565b61261e9291906137d7565b50600482018160040190805461263390614619565b61263e9291906137d7565b5050506005830154604051600160a01b90910460e01b90612666906006860190602001615356565b60408051601f198184030181529082905261268492916020016153f7565b60408051601f198184030181529082905260058501549093506060916001600160a01b03909116906126b7908590615322565b6000604051808303816000865af19150503d80600081146126f4576040519150601f19603f3d011682016040523d82523d6000602084013e6126f9565b606091505b509092509050816127715760058401546040516001600160e01b0319600160a01b830460e01b16916001600160a01b0316907f3a2f8f101234fe7b48ed2373917761c568f6bb1d9984e1d77bcb59a3c37667c79061275e906002890190600190615334565b60405180910390a3505050505050505050565b6000818060200190518101906127879190615428565b905080156127fc5760058501546040516001600160e01b0319600160a01b830460e01b16916001600160a01b0316907f3a2f8f101234fe7b48ed2373917761c568f6bb1d9984e1d77bcb59a3c37667c7906127e89060028a01908690615334565b60405180910390a350505050505050505050565b60058501546040516001600160e01b0319600160a01b830460e01b16916001600160a01b0316907f40da47e0b1f1eccba09545e1bfb65bcb7596161510418021c7bbf930850d2a36906127e89060028a0190615441565b600060058383604051612867929190614609565b908152602001604051809103902054905092915050565b6000546001600160a01b031633146128a85760405162461bcd60e51b815260040161043290614b9f565b6001600160a01b03811661290d5760405162461bcd60e51b815260206004820152602660248201527f4f776e61626c653a206e6577206f776e657220697320746865207a65726f206160448201526564647265737360d01b6064820152608401610432565b61226d816132db565b60208101516040516319060c0760e11b8152600091309163320c180e91612941913390600401615454565b602060405180830381865afa15801561295e573d6000803e3d6000fd5b505050506040513d601f19601f820116820180604052508101906129829190615428565b825190915081146129d55760405162461bcd60e51b815260206004820152601860248201527f43726f7373436861696e3a206964206e6f74206d6174636800000000000000006044820152606401610432565b815160208301516040516016916129eb91615322565b9081526040805191829003602090810183203360009081529082529182209390935591840151601491612a1e9190615322565b9081526040519081900360200190208054909150600090612a40906001614d76565b84511415612aa1575080546001810182556000828152602090819020908501516040519190920191601591612a759190615322565b908152604051602091819003820190208551815460018101835560009283529290912090910155612ace565b83518290612ab190600190614d8e565b81548110612ac157612ac161490d565b9060005260206000200190505b600084604051602001612ae1919061547e565b60408051601f1981840301815291905280516020909101209050600080805b8454811015612b715783858281548110612b1c57612b1c61490d565b9060005260206000209060100201600001541415612b5f57848181548110612b4657612b4661490d565b9060005260206000209060100201925060019150612b71565b80612b6981614a6a565b915050612b00565b5080612e435783546001818101865560008681526020908190206010909302909201858155895191810191909155888201518051919450612bb99260028601929101906138d6565b5060408701518051612bd59160038501916020909101906138d6565b5060608701518051612bf19160048501916020909101906138d6565b5060808701518051612c0d9160058501916020909101906138d6565b5060c087015160078301805460e0808b0151901c600160a01b026001600160c01b03199091166001600160a01b039093169290921791909117905560005b6101008801515151811015612d105761010088015151805160088501919083908110612c7957612c7961490d565b602090810291909101810151825460018101845560009384529282902081518051929460030290910192612cb2928492909101906138d6565b50602082015160018083018054909160ff1990911690836016811115612cda57612cda614110565b021790555060408201518051612cfa9160028401916020909101906138d6565b5050508080612d0890614a6a565b915050612c4b565b5060005b8760a0015151811015612dba57826001016005018860a001518281518110612d3e57612d3e61490d565b60209081029190910181015182546001818101855560009485529290932081516002909402018054919390929091839160ff1990911690836009811115612d8757612d87614110565b02179055506020828101518051612da492600185019201906138d6565b5050508080612db290614a6a565b915050612d14565b50610120870151805160098401908155602080830151600a8601805460ff191660ff90921691909117905560408301518051612dfc92600b88019201906138d6565b5060608201518051612e189160038401916020909101906138d6565b5060808201518051612e349160048401916020909101906138d6565b505050610140870151600e8301555b60135460405163338e72cb60e11b8152336004820152600f8401916001600160a01b03169063671ce596906024016040805180830381865afa158015612e8d573d6000803e3d6000fd5b505050506040513d601f19601f82011682018060405250810190612eb191906155a9565b5181546001810183556000928352602083200180546001600160a01b0319166001600160a01b03909216919091179055805b8554811015612f3057858181548110612efe57612efe61490d565b60009182526020909120600f6010909202010154612f1c9083614d76565b915080612f2881614a6a565b915050612ee3565b50601360009054906101000a90046001600160a01b03166001600160a01b031663307860b16040518163ffffffff1660e01b8152600401602060405180830381865afa158015612f84573d6000803e3d6000fd5b505050506040513d601f19601f82011682018060405250810190612fa89190615428565b81106132d15784546000906001600160401b03811115612fca57612fca6146eb565b604051908082528060200260200182016040528015612ffd57816020015b6060815260200190600190039081612fe85790505b50905060005b81518110156130b85786818154811061301e5761301e61490d565b9060005260206000209060100201600f0180548060200260200160405190810160405280929190818152602001828054801561308357602002820191906000526020600020905b81546001600160a01b03168152600190910190602001808311613065575b505050505082828151811061309a5761309a61490d565b602002602001018190525080806130b090614a6a565b915050613003565b5060135460405163976293a560e01b815260009182916001600160a01b039091169063976293a5906130ee908690600401615610565b60408051808303816000875af115801561310c573d6000803e3d6000fd5b505050506040513d601f19601f8201168201806040525081019061313091906156a3565b915091506131638882815481106131495761314961490d565b90600052602060002090601002016001018360001461332b565b7fd3fe76e78be8a6caeb1cebbe1e67c296b038762386feb78ab693075e904bf4338882815481106131965761319661490d565b90600052602060002090601002016001016001018983815481106131bc576131bc61490d565b906000526020600020906010020160010160000154846040516131e1939291906156c7565b60405180910390a1600060158c602001516040516131ff9190615322565b9081526020016040518091039020905060005b81548110156132cb578c600001518282815481106132325761323261490d565b906000526020600020015414156132b9578154829061325390600190614d8e565b815481106132635761326361490d565b90600052602060002001548282815481106132805761328061490d565b90600052602060002001819055508180548061329e5761329e615248565b600190038181906000526020600020016000905590556132cb565b806132c381614a6a565b915050613212565b50505050505b5050505050505050565b600080546001600160a01b038381166001600160a01b0319831681178455604051919092169283917f8be0079c531659141344cd1fd0a4f28419497f9722a3daafe3b4186f6b6457e09190a35050565b600060048360010160405161334091906156ec565b908152604080516020928190038301902085546000908152928190529120805491925090156133bd5760405162461bcd60e51b8152602060048201526024808201527f43726f7373436861696e3a206d65737361676520616c726561647920726563656044820152631a5d995960e21b6064820152608401610432565b6005846001016040516133d091906156ec565b90815260405190819003602001902080549060006133ed83614a6a565b909155505083548155600180850180549183019161340a90614619565b6134159291906137d7565b50836003018160020190805461342a90614619565b6134359291906137d7565b50836004018160030190805461344a90614619565b6134559291906137d7565b506006840180546005830180546001600160a01b039092166001600160a01b031983168117825592546001600160c01b0319909216909217600160a01b9182900463ffffffff1690910217905560005b600785015481101561357457600785018054600684019190839081106134cd576134cd61490d565b6000918252602080832084546001810186559484529220600391820290920180549093909102909101908190839061350490614619565b61350f9291906137d7565b50600182810154828201805460ff90921692909160ff19169083601681111561353a5761353a614110565b0217905550600282018160020190805461355390614619565b61355e9291906137d7565b505050808061356c90614a6a565b9150506134a5565b5060005b6005850154811015613627578160040185600501828154811061359d5761359d61490d565b6000918252602080832084546001818101875595855291909320600292830290930180549190920290920180549193909260ff1691839160ff19909116908360098111156135ed576135ed614110565b0217905550600182018160010190805461360690614619565b6136119291906137d7565b505050808061361f90614a6a565b915050613578565b506008808501805460078401908155600980880154938501805460ff191660ff90951694909417909355600a87018054929391929185019161366890614619565b6136739291906137d7565b50600382018160030190805461368890614619565b6136939291906137d7565b5060048201816004019080546136a890614619565b6136b39291906137d7565b509050508280156136c65750600d840154155b1561370d5760006006856001016040516136e091906156ec565b90815260405160209181900382019020865481546001810183556000928352929091209091015550610ada565b600060078560010160405161372291906156ec565b9081526040516020918190038201902095548654600181018855600097885291909620019490945550505050565b60405180610160016040528060008152602001606081526020016060815260200160608152602001606081526020016060815260200160006001600160a01b0316815260200160006001600160e01b03191681526020016137bd6040518060200160405280606081525090565b81526020016137ca613bef565b8152602001600081525090565b8280546137e390614619565b90600052602060002090601f0160209004810192826138055760008555613852565b82601f106138165780548555613852565b8280016001018555821561385257600052602060002091601f016020900482015b82811115613852578254825591600101919060010190613837565b5061385e929150613c21565b5090565b82805461386e90614619565b90600052602060002090601f0160209004810192826138905760008555613852565b82601f106138a95782800160ff19823516178555613852565b82800160010185558215613852579182015b828111156138525782358255916020019190600101906138bb565b8280546138e290614619565b90600052602060002090601f0160209004810192826139045760008555613852565b82601f1061391d57805160ff1916838001178555613852565b82800160010185558215613852579182015b8281111561385257825182559160200191906001019061392f565b508054600082559060005260206000209081019061226d9190613c36565b508054600082559060005260206000209081019061226d9190613c21565b50805460008255600e029060005260206000209081019061226d9190613c53565b5080546139b390614619565b6000825580601f106139c3575050565b601f01602090049060005260206000209081019061226d9190613c21565b508054600082556002029060005260206000209081019061226d9190613d22565b508054600082556003029060005260206000209081019061226d9190613d4a565b604051806101000160405280600081526020016060815260200160608152602001606081526020016060815260200160608152602001613a61613d81565b8152602001613a6e613bef565b905290565b604051806101000160405280600081526020016060815260200160608152602001606081526020016060815260200160006001600160a01b0316815260200160006001600160e01b0319168152602001613a6e613bef565b604051806101600160405280600081526020016060815260200160608152602001606081526020016060815260200160006001600160a01b0316815260200160006001600160e01b0319168152602001613b316040518060200160405280606081525090565b8152602001613b3e613bef565b815260006020820181905260409091015290565b828054828255906000526020600020906002028101928215613be35760005260206000209160020282015b82811115613be357825482548491849160ff90911690829060ff19166001836009811115613bad57613bad614110565b02179055506001820181600101908054613bc690614619565b613bd19291906137d7565b50505091600201919060020190613b7d565b5061385e929150613d22565b6040518060a0016040528060008152602001600060ff1681526020016060815260200160608152602001606081525090565b5b8082111561385e5760008155600101613c22565b8082111561385e576000613c4a8282613db0565b50600101613c36565b8082111561385e576000808255613c6d60018301826139a7565b613c7b6002830160006139a7565b613c896003830160006139a7565b613c976004830160006139a7565b613ca56005830160006139e1565b600682016000613cb582826139a7565b613cc36001830160006139a7565b600282016000613cd38282613a02565b5050600060098501818155600a8601805460ff1916905592509050613cfb600b8501826139a7565b613d096003830160006139a7565b613d176004830160006139a7565b505050600e01613c53565b8082111561385e57805460ff191681556000613d4160018301826139a7565b50600201613d22565b8082111561385e576000613d5e82826139a7565b60018201805460ff19169055613d786002830160006139a7565b50600301613d4a565b60405180606001604052806060815260200160608152602001613a6e6040518060200160405280606081525090565b508054600082556010029060005260206000209081019061226d91905b8082111561385e5760008082556001820181815581613def60028501826139a7565b613dfd6002830160006139a7565b613e0b6003830160006139a7565b613e196004830160006139a7565b613e276005830160006139e1565b6006820180546001600160c01b0319169055600782016000613e498282613a02565b505060006008830181815560098401805460ff1916905590613e6e600a8501826139a7565b613e7c6003830160006139a7565b613e8a6004830160006139a7565b5050600d8201600090555050600f82016000613ea69190613968565b50601001613dcd565b60008083601f840112613ec157600080fd5b5081356001600160401b03811115613ed857600080fd5b602083019150836020828501011115613ef057600080fd5b9250929050565b60008060208385031215613f0a57600080fd5b82356001600160401b03811115613f2057600080fd5b613f2c85828601613eaf565b90969095509350505050565b60005b83811015613f53578181015183820152602001613f3b565b83811115610ada5750506000910152565b60008151808452613f7c816020860160208601613f38565b601f01601f19169290920160200192915050565b602081526000610bda6020830184613f64565b60008060008060608587031215613fb957600080fd5b84356001600160401b03811115613fcf57600080fd5b613fdb87828801613eaf565b90989097506020870135966040013595509350505050565b60006020828403121561400557600080fd5b81356001600160401b0381111561401b57600080fd5b820160808185031215610bda57600080fd5b6001600160a01b038116811461226d57600080fd5b803561404d8161402d565b919050565b60006020828403121561406457600080fd5b8135610bda8161402d565b60008060006040848603121561408457600080fd5b83356001600160401b0381111561409a57600080fd5b6140a686828701613eaf565b90945092505060208401356140ba8161402d565b809150509250925092565b6000806000604084860312156140da57600080fd5b83356001600160401b038111156140f057600080fd5b6140fc86828701613eaf565b909790965060209590950135949350505050565b634e487b7160e01b600052602160045260246000fd5b600081518084526020808501808196508360051b8101915082860160005b85811015614194578284038952815160408151600a811061416757614167614110565b8652908601518686018290529061418081870183613f64565b9a87019a9550505090840190600101614144565b5091979650505050505050565b601781106141b1576141b1614110565b9052565b8051602080845281518482018190526000926040919083019082870190600581901b88018401865b8281101561424157603f198a830301845284516060815181855261420382860182613f64565b915050888201516142168a8601826141a1565b5090870151838203848901529061422d8183613f64565b9689019695890195935050506001016141dd565b5098975050505050505050565b60008151606084526142636060850182613f64565b90506020830151848203602086015261427c8282613f64565b9150506040830151848203604086015261429682826141b5565b95945050505050565b8051825260ff60208201511660208301526000604082015160a060408501526142cb60a0850182613f64565b9050606083015184820360608601526142e48282613f64565b915050608083015184820360808601526142968282613f64565b602081528151602082015260006020830151610100806040850152614327610120850183613f64565b91506040850151601f19808685030160608701526143458483613f64565b935060608701519150808685030160808701526143628483613f64565b935060808701519150808685030160a087015261437f8483613f64565b935060a08701519150808685030160c087015261439c8483614126565b935060c08701519150808685030160e08701526143b9848361424e565b935060e08701519150808685030183870152506143d6838261429f565b9695505050505050565b602081528151602082015260006020830151610100806040850152614409610120850183613f64565b91506040850151601f19808685030160608701526144278483613f64565b935060608701519150808685030160808701526144448483613f64565b935060808701519150808685030160a08701526144618483614126565b935060a0870151915061447f60c08701836001600160a01b03169052565b60c08701516001600160e01b0319811660e0880152915060e08701519150808685030183870152506143d6838261429f565b6020815281516020820152600060208301516101608060408501526144da610180850183613f64565b91506040850151601f19808685030160608701526144f88483613f64565b935060608701519150808685030160808701526145158483613f64565b935060808701519150808685030160a08701526145328483614126565b935060a0870151915061455060c08701836001600160a01b03169052565b60c08701516001600160e01b0319811660e0880152915060e0870151915061010081878603018188015261458485846141b5565b9450808801519250506101208187860301818801526145a3858461429f565b945080880151925050506101406145bd8187018315159052565b959095015193019290925250919050565b6000602082840312156145e057600080fd5b81356001600160401b038111156145f657600080fd5b82016101608185031215610bda57600080fd5b8183823760009101908152919050565b600181811c9082168061462d57607f821691505b6020821081141561464e57634e487b7160e01b600052602260045260246000fd5b50919050565b60006020828403121561466657600080fd5b81518015158114610bda57600080fd5b6000808335601e1984360301811261468d57600080fd5b8301803591506001600160401b038211156146a757600080fd5b602001915036819003821315613ef057600080fd5b60008235609e198336030181126146d257600080fd5b9190910192915050565b60ff8116811461226d57600080fd5b634e487b7160e01b600052604160045260246000fd5b601f82111561474b57600081815260208120601f850160051c810160208610156147285750805b601f850160051c820191505b8181101561474757828155600101614734565b5050505b505050565b600019600383901b1c191660019190911b1790565b6001600160401b0383111561477c5761477c6146eb565b6147908361478a8354614619565b83614701565b6000601f8411600181146147be57600085156147ac5750838201355b6147b68682614750565b845550610492565b600083815260209020601f19861690835b828110156147ef57868501358255602094850194600190920191016147cf565b508682101561480c5760001960f88860031b161c19848701351681555b505060018560011b0183555050505050565b81358155600181016020830135614834816146dc565b815460ff191660ff919091161790556148506040830183614676565b61485e818360028601614765565b505061486d6060830183614676565b61487b818360038601614765565b505061488a6080830183614676565b610ada818360048601614765565b60008235605e198336030181126146d257600080fd5b60008235601e198336030181126146d257600080fd5b6000808335601e198436030181126148db57600080fd5b8301803591506001600160401b038211156148f557600080fd5b6020019150600581901b3603821315613ef057600080fd5b634e487b7160e01b600052603260045260246000fd5b6017811061226d57600080fd5b600081356102f681614923565b6017821061494d5761494d614110565b60ff1981541660ff831681178255505050565b61496a8283614676565b6001600160401b03811115614981576149816146eb565b6149958161498f8554614619565b85614701565b6000601f8211600181146149c357600083156149b15750838201355b6149bb8482614750565b865550614a1d565b600085815260209020601f19841690835b828110156149f457868501358255602094850194600190920191016149d4565b5084821015614a115760001960f88660031b161c19848701351681555b505060018360011b0185555b50505050614a39614a3060208401614930565b6001830161493d565b614a466040830183614676565b610ada818360028601614765565b634e487b7160e01b600052601160045260246000fd5b6000600019821415614a7e57614a7e614a54565b5060010190565b60008235603e198336030181126146d257600080fd5b600a811061226d57600080fd5b8135614ab381614a9b565b600a8110614ac357614ac3614110565b60ff1982541660ff821681178355505060018082016020614ae681860186614676565b6001600160401b03811115614afd57614afd6146eb565b614b1181614b0b8654614619565b86614701565b6000601f821160018114614b3f5760008315614b2d5750838201355b614b378482614750565b875550614b94565b600086815260209020601f19841690835b82811015614b6d5786850135825593870193908901908701614b50565b5084821015614b8a5760001960f88660031b161c19848701351681555b50508683881b0186555b505050505050505050565b6020808252818101527f4f776e61626c653a2063616c6c6572206973206e6f7420746865206f776e6572604082015260600190565b604080519081016001600160401b0381118282101715614bf657614bf66146eb565b60405290565b604051602081016001600160401b0381118282101715614bf657614bf66146eb565b604051606081016001600160401b0381118282101715614bf657614bf66146eb565b60405160a081016001600160401b0381118282101715614bf657614bf66146eb565b60405161016081016001600160401b0381118282101715614bf657614bf66146eb565b604051601f8201601f191681016001600160401b0381118282101715614cad57614cad6146eb565b604052919050565b60006001600160401b03821115614cce57614cce6146eb565b5060051b60200190565b60006020808385031215614ceb57600080fd5b82516001600160401b03811115614d0157600080fd5b8301601f81018513614d1257600080fd5b8051614d25614d2082614cb5565b614c85565b81815260059190911b82018301908381019087831115614d4457600080fd5b928401925b82841015614d6b578351614d5c8161402d565b82529284019290840190614d49565b979650505050505050565b60008219821115614d8957614d89614a54565b500190565b600082821015614da057614da0614a54565b500390565b600082601f830112614db657600080fd5b81356001600160401b03811115614dcf57614dcf6146eb565b614de2601f8201601f1916602001614c85565b818152846020838601011115614df757600080fd5b816020850160208301376000918101602001919091529392505050565b600082601f830112614e2557600080fd5b81356020614e35614d2083614cb5565b82815260059290921b84018101918181019086841115614e5457600080fd5b8286015b84811015614ede5780356001600160401b0380821115614e785760008081fd5b908801906040828b03601f1901811315614e925760008081fd5b614e9a614bd4565b87840135614ea781614a9b565b8152908301359082821115614ebc5760008081fd5b614eca8c8984870101614da5565b818901528652505050918301918301614e58565b509695505050505050565b80356001600160e01b03198116811461404d57600080fd5b60006020808385031215614f1457600080fd5b614f1c614bfc565b915082356001600160401b0380821115614f3557600080fd5b818501915085601f830112614f4957600080fd5b8135614f57614d2082614cb5565b81815260059190911b83018401908481019088831115614f7657600080fd5b8585015b8381101561501c57803585811115614f925760008081fd5b86016060818c03601f1901811315614faa5760008081fd5b614fb2614c1e565b8983013588811115614fc45760008081fd5b614fd28e8c83870101614da5565b825250604080840135614fe481614923565b828c0152918301359188831115614ffb5760008081fd5b6150098e8c85870101614da5565b9082015285525050918601918601614f7a565b50865250939695505050505050565b803561404d816146dc565b600060a0828403121561504857600080fd5b615050614c40565b9050813581526150626020830161502b565b602082015260408201356001600160401b038082111561508157600080fd5b61508d85838601614da5565b604084015260608401359150808211156150a657600080fd5b6150b285838601614da5565b606084015260808401359150808211156150cb57600080fd5b506150d884828501614da5565b60808301525092915050565b600061016082360312156150f757600080fd5b6150ff614c62565b8235815260208301356001600160401b038082111561511d57600080fd5b61512936838701614da5565b6020840152604085013591508082111561514257600080fd5b61514e36838701614da5565b6040840152606085013591508082111561516757600080fd5b61517336838701614da5565b6060840152608085013591508082111561518c57600080fd5b61519836838701614da5565b608084015260a08501359150808211156151b157600080fd5b6151bd36838701614e14565b60a08401526151ce60c08601614042565b60c08401526151df60e08601614ee9565b60e0840152610100915081850135818111156151fa57600080fd5b61520636828801614f01565b83850152506101209150818501358181111561522157600080fd5b61522d36828801615036565b92840192909252505061014092830135928101929092525090565b634e487b7160e01b600052603160045260246000fd5b6000815461526b81614619565b808552602060018381168015615288576001811461529c576152ca565b60ff198516888401526040880195506152ca565b866000528260002060005b858110156152c25781548a82018601529083019084016152a7565b890184019650505b505050505092915050565b60608152836060820152838560808301376000608085830101526000601f19601f860116820163ffffffff60e01b851660208401526080838203016040840152614d6b608082018561525e565b600082516146d2818460208701613f38565b604081526000615347604083018561525e565b90508260208301529392505050565b6000602080835260408084018283860152808654808352606092508287019150828160051b880101886000528560002060005b838110156153e857898303605f190185528583526153a98684018361525e565b60ff6001840154166153bd8a8601826141a1565b50838103888501526153d2816002850161525e565b9589019593505060039190910190600101615389565b50909998505050505050505050565b6001600160e01b031983168152815160009061541a816004850160208701613f38565b919091016004019392505050565b60006020828403121561543a57600080fd5b5051919050565b602081526000610bda602083018461525e565b6040815260006154676040830185613f64565b905060018060a01b03831660208301529392505050565b6020815281516020820152600060208301516101608060408501526154a7610180850183613f64565b91506040850151601f19808685030160608701526154c58483613f64565b935060608701519150808685030160808701526154e28483613f64565b935060808701519150808685030160a08701526154ff8483613f64565b935060a08701519150808685030160c087015261551c8483614126565b935060c0870151915061553a60e08701836001600160a01b03169052565b60e08701519150610100615559818801846001600160e01b0319169052565b8088015192505061012081878603018188015261557685846141b5565b945080880151925050610140818786030181880152615595858461429f565b970151959092019490945250929392505050565b6000604082840312156155bb57600080fd5b604051604081018181106001600160401b03821117156155dd576155dd6146eb565b60405282516155eb8161402d565b8152602083015163ffffffff8116811461560457600080fd5b60208201529392505050565b6000602080830181845280855180835260408601915060408160051b87010192508387016000805b8381101561569557888603603f19018552825180518088529088019088880190845b8181101561567f5783516001600160a01b03168352928a0192918a019160010161565a565b5090975050509386019391860191600101615638565b509398975050505050505050565b600080604083850312156156b657600080fd5b505080516020909101519092909150565b6060815260006156da606083018661525e565b60208301949094525060400152919050565b60008083546156fa81614619565b60018281168015615712576001811461572357615752565b60ff19841687528287019450615752565b8760005260208060002060005b858110156157495781548a820152908401908201615730565b50505082870194505b5092969550505050505056fea2646970667358221220f6e5f934bac32f4554d1a3b38369b3f464a0e583521c28119422f7fcbf4ff32d64736f6c634300080a0033",
  "immutableReferences": {},
  "source": "// SPDX-License-Identifier: MIT\npragma solidity >=0.8.0 <0.9.0;\n\nimport \"./CrossChainBase.sol\";\nimport \"../interfaces/IRoutersCore.sol\";\n\ncontract CrossChain is CrossChainBase {\n    IRoutersCore private routersCoreContract;\n    mapping(string => Group[][]) private cachedMessageTable;\n    mapping(string => uint256[]) private pendingMessageKeys;\n    mapping(string => mapping(address => uint256)) private finalReceivedMessageId;\n    \n    event Verification(string chainName, uint256 id, uint256 errorCode);\n\n    modifier onlyRouter() {\n        require(routersCoreContract.isSelected(msg.sender), \"Caller not router\");\n        _;\n    }\n\n    constructor(string memory _chainName) CrossChainBase(_chainName) {\n    }\n\n    /**\n     * @dev Internal method to deal received messages\n     */\n    function internalReceiveMessage(IReceivedMessage memory _message) internal {\n        uint256 nextMessageId = this.getNextMessageId(_message.fromChain, msg.sender);\n        require(_message.id == nextMessageId, \"CrossChain: id not match\");\n\n        // update received message id\n        finalReceivedMessageId[_message.fromChain][msg.sender] = _message.id;\n\n        Group[][] storage chainMessages = cachedMessageTable[_message.fromChain];\n        // get groups\n        Group[] storage groups;\n        if (_message.id == chainMessages.length + 1) {\n            groups = chainMessages.push();\n            pendingMessageKeys[_message.fromChain].push(_message.id);\n        }\n        else {\n            groups = chainMessages[_message.id - 1];\n        }\n\n        // get group        \n        bytes32 hash = keccak256(abi.encode(_message));\n        Group storage group;\n        bool found = false;\n        for (uint256 i = 0; i < groups.length; i++) {\n            if (groups[i].hash == hash) {\n                group = groups[i];\n                found = true;\n                break;\n            }\n        }\n\n        if (!found) {\n            group = groups.push();\n            group.hash = hash;\n            group.message.id = _message.id;\n            group.message.fromChain = _message.fromChain;\n            group.message.toChain = _message.toChain;\n            group.message.sender = _message.sender;\n            group.message.signer = _message.signer;\n            group.message.contractAddress = _message.contractAddress;\n            group.message.action = _message.action;\n            for (uint i = 0; i < _message.data.items.length; i++) {\n                group.message.data.items.push(_message.data.items[i]);\n            }\n            for (uint i = 0; i < _message.sqos.length; i++) {\n                group.message.sqos.push(_message.sqos[i]);\n            }\n            group.message.session = _message.session;\n            group.message.errorCode = _message.errorCode;\n        }\n        else {\n            group = group;\n        }\n\n        group.routers.push(routersCoreContract.getRouterById(msg.sender).id);\n\n        // get the number of routers that have submitted messages\n        uint256 len = 0;\n        for (uint256 i = 0; i < groups.length; i++) {\n            len += groups[i].routers.length;\n        }\n\n        if (len >= routersCoreContract.getSelectedRoutersNumber()) {\n            address[][] memory verifyGroups = new address[][](groups.length);\n            for (uint256 i = 0; i < verifyGroups.length; i++) {\n                verifyGroups[i] = groups[i].routers;\n            }\n            (uint256 errorCode, uint256 groupIndex) = routersCoreContract.verifyMessage(verifyGroups);\n            _receiveMessage(groups[groupIndex].message, errorCode == 0);\n            emit Verification(groups[groupIndex].message.fromChain, groups[groupIndex].message.id, errorCode);\n            uint256[] storage pendingKeys = pendingMessageKeys[_message.fromChain];\n            for (uint256 i = 0; i < pendingKeys.length; i++) {\n                if (pendingKeys[i] == _message.id) {\n                    pendingKeys[i] = pendingKeys[pendingKeys.length - 1];\n                    pendingKeys.pop();\n                    break;\n                }\n            }\n        }\n    }\n\n    /**\n     * @dev See ICrossChain\n     */\n    function receiveMessage(IReceivedMessage calldata _message) external override onlyRouter {\n        internalReceiveMessage(_message);\n    }\n\n    /**\n     * @dev Cross-Chain abandons message from chain `_fromChain`, the message will\n     * be skipped and not be executed.\n     */\n    function abandonMessage(string calldata _fromChain, uint256 _id, uint256 _errorCode) external onlyRouter {\n        IReceivedMessage memory _message;\n        _message.fromChain = _fromChain;\n        _message.id = _id;\n        _message.errorCode = _errorCode;\n        internalReceiveMessage(_message);\n    }\n\n    /**\n     * @dev Returns the next message id which will be received from chain `chainName`\n     * @param chainName: The chain name from which routers query messages\n     * @param router: The address of the router which will port messages\n     * @return id: The message id\n     */\n    function getNextMessageId(string calldata chainName, address router) external view returns (uint256) {\n        uint256[] storage pendingIds = pendingMessageKeys[chainName];\n        uint256 routerFinalId = finalReceivedMessageId[chainName][router];\n        for (uint256 i = 0; i < pendingIds.length; i++) {\n            if (pendingIds[i] > routerFinalId) {\n                return pendingIds[i];\n            }\n        }\n\n        return cachedMessageTable[chainName].length + 1;\n    }\n\n    /**\n     * @dev Sets the address of the RouterCore contract\n     * @param _address: The address of the RouterCore contract\n     */\n    function setRouterCoreContractAddress(address _address) external onlyOwner {\n        routersCoreContract = IRoutersCore(_address);\n    }\n\n    function clearCrossChainMessage(string calldata chainName) external onlyOwner {\n        delete cachedMessageTable[chainName];\n        delete pendingMessageKeys[chainName];\n        delete sentMessageTable[chainName];\n        delete receivedMessageNumber[chainName];\n        delete executableMessageTable[chainName];\n        delete abandonedMessageTable[chainName];\n        address[] memory routers = routersCoreContract.getRouters();\n        for (uint256 i = 0; i < routers.length; i++) {\n            delete finalReceivedMessageId[chainName][routers[i]];\n        }\n\n        for (uint256 i = 0; i < receivedMessageNumber[chainName]; i++) {\n            delete receivedMessageTable[chainName][i];\n        }\n    }\n}",
  "sourcePath": "/home/george/program/dante/dante-cross-chain/avalanche/contracts/crossChain/CrossChain.sol",
  "compiler": {
    "name": "solc",
    "version": "0.8.10+commit.fc410830.Emscripten.clang"
  },
  "schemaVersion": "3.4.6",
  "updatedAt": "2022-09-08T14:39:19.195Z",
  "networkType": "ethereum",
  "devdoc": {
    "kind": "dev",
    "methods": {
      "abandonMessage(string,uint256,uint256)": {
        "details": "Cross-Chain abandons message from chain `_fromChain`, the message will be skipped and not be executed."
      },
      "executeMessage(string,uint256)": {
        "details": "See ICrossChain."
      },
      "getCurrentMessage()": {
        "details": "See ICrossChain."
      },
      "getExecutableMessageId(string)": {
        "details": "See ICrossChain."
      },
      "getNextMessageId(string,address)": {
        "details": "Returns the next message id which will be received from chain `chainName`",
        "params": {
          "chainName": ": The chain name from which routers query messages",
          "router": ": The address of the router which will port messages"
        },
        "returns": {
          "_0": "id: The message id"
        }
      },
      "getReceivedMessage(string,uint256)": {
        "details": "See ICrossChain."
      },
      "getReceivedMessageNumber(string)": {
        "details": "See ICrossChain."
      },
      "getSentMessage(string,uint256)": {
        "details": "See ICrossChain."
      },
      "getSentMessageNumber(string)": {
        "details": "See ICrossChain."
      },
      "owner()": {
        "details": "Returns the address of the current owner."
      },
      "receiveMessage((uint256,string,string,bytes,bytes,(uint8,bytes)[],address,bytes4,((string,uint8,bytes)[]),(uint256,uint8,bytes,bytes,bytes),uint256))": {
        "details": "See ICrossChain"
      },
      "renounceOwnership()": {
        "details": "Leaves the contract without owner. It will not be possible to call `onlyOwner` functions anymore. Can only be called by the current owner. NOTE: Renouncing ownership will leave the contract without an owner, thereby removing any functionality that is only available to the owner."
      },
      "sendMessage((string,(uint8,bytes)[],(bytes,bytes,((string,uint8,bytes)[])),(uint256,uint8,bytes,bytes,bytes)))": {
        "details": "See ICrossChain."
      },
      "setRouterCoreContractAddress(address)": {
        "details": "Sets the address of the RouterCore contract",
        "params": {
          "_address": ": The address of the RouterCore contract"
        }
      },
      "setTokenContract(address)": {
        "details": "See ICrossChain."
      },
      "transferOwnership(address)": {
        "details": "Transfers ownership of the contract to a new account (`newOwner`). Can only be called by the current owner."
      }
    },
    "version": 1
  },
  "userdoc": {
    "kind": "user",
    "methods": {},
    "version": 1
  }
}