{
  "contractName": "TwoPhaseCommitCrossChain",
  "abi": [
    {
      "inputs": [
        {
          "internalType": "string",
          "name": "_chainName",
          "type": "string"
        }
      ],
      "stateMutability": "nonpayable",
      "type": "constructor"
    },
    {
      "anonymous": false,
      "inputs": [
        {
          "indexed": true,
          "internalType": "address",
          "name": "previousOwner",
          "type": "address"
        },
        {
          "indexed": true,
          "internalType": "address",
          "name": "newOwner",
          "type": "address"
        }
      ],
      "name": "OwnershipTransferred",
      "type": "event"
    },
    {
      "inputs": [
        {
          "internalType": "string",
          "name": "_fromChain",
          "type": "string"
        },
        {
          "internalType": "uint256",
          "name": "_id",
          "type": "uint256"
        },
        {
          "internalType": "uint256",
          "name": "_errorCode",
          "type": "uint256"
        }
      ],
      "name": "abandonMessage",
      "outputs": [],
      "stateMutability": "nonpayable",
      "type": "function"
    },
    {
      "inputs": [],
      "name": "chainName",
      "outputs": [
        {
          "internalType": "string",
          "name": "",
          "type": "string"
        }
      ],
      "stateMutability": "view",
      "type": "function",
      "constant": true
    },
    {
      "inputs": [
        {
          "internalType": "address[]",
          "name": "_porters",
          "type": "address[]"
        },
        {
          "internalType": "uint256",
          "name": "_requirement",
          "type": "uint256"
        }
      ],
      "name": "changePortersAndRequirement",
      "outputs": [],
      "stateMutability": "nonpayable",
      "type": "function"
    },
    {
      "inputs": [
        {
          "internalType": "string",
          "name": "_chainName",
          "type": "string"
        },
        {
          "internalType": "uint256",
          "name": "_id",
          "type": "uint256"
        }
      ],
      "name": "executeMessage",
      "outputs": [],
      "stateMutability": "nonpayable",
      "type": "function"
    },
    {
      "inputs": [],
      "name": "getCurrentMessage",
      "outputs": [
        {
          "components": [
            {
              "internalType": "uint256",
              "name": "id",
              "type": "uint256"
            },
            {
              "internalType": "string",
              "name": "fromChain",
              "type": "string"
            },
            {
              "internalType": "string",
              "name": "sender",
              "type": "string"
            },
            {
              "internalType": "string",
              "name": "signer",
              "type": "string"
            },
            {
              "components": [
                {
                  "internalType": "enum SQoSType",
                  "name": "t",
                  "type": "uint8"
                },
                {
                  "internalType": "string",
                  "name": "v",
                  "type": "string"
                }
              ],
              "internalType": "struct SQoS[]",
              "name": "sqos",
              "type": "tuple[]"
            },
            {
              "internalType": "address",
              "name": "contractAddress",
              "type": "address"
            },
            {
              "internalType": "bytes4",
              "name": "action",
              "type": "bytes4"
            },
            {
              "components": [
                {
                  "internalType": "uint256",
                  "name": "id",
                  "type": "uint256"
                },
                {
                  "internalType": "bytes",
                  "name": "callback",
                  "type": "bytes"
                }
              ],
              "internalType": "struct Session",
              "name": "session",
              "type": "tuple"
            }
          ],
          "internalType": "struct SimplifiedMessage",
          "name": "",
          "type": "tuple"
        }
      ],
      "stateMutability": "view",
      "type": "function",
      "constant": true
    },
    {
      "inputs": [
        {
          "internalType": "string",
          "name": "_chainName",
          "type": "string"
        }
      ],
      "name": "getExecutableMessageId",
      "outputs": [
        {
          "internalType": "uint256",
          "name": "",
          "type": "uint256"
        }
      ],
      "stateMutability": "view",
      "type": "function",
      "constant": true
    },
    {
      "inputs": [
        {
          "internalType": "string",
          "name": "_chainName",
          "type": "string"
        },
        {
          "internalType": "address",
          "name": "_porter",
          "type": "address"
        }
      ],
      "name": "getMsgPortingTask",
      "outputs": [
        {
          "internalType": "uint256",
          "name": "",
          "type": "uint256"
        }
      ],
      "stateMutability": "view",
      "type": "function",
      "constant": true
    },
    {
      "inputs": [
        {
          "internalType": "string",
          "name": "_chainName",
          "type": "string"
        },
        {
          "internalType": "uint256",
          "name": "_id",
          "type": "uint256"
        }
      ],
      "name": "getReceivedMessage",
      "outputs": [
        {
          "components": [
            {
              "internalType": "uint256",
              "name": "id",
              "type": "uint256"
            },
            {
              "internalType": "string",
              "name": "fromChain",
              "type": "string"
            },
            {
              "internalType": "string",
              "name": "sender",
              "type": "string"
            },
            {
              "internalType": "string",
              "name": "signer",
              "type": "string"
            },
            {
              "components": [
                {
                  "internalType": "enum SQoSType",
                  "name": "t",
                  "type": "uint8"
                },
                {
                  "internalType": "string",
                  "name": "v",
                  "type": "string"
                }
              ],
              "internalType": "struct SQoS[]",
              "name": "sqos",
              "type": "tuple[]"
            },
            {
              "internalType": "address",
              "name": "contractAddress",
              "type": "address"
            },
            {
              "internalType": "bytes4",
              "name": "action",
              "type": "bytes4"
            },
            {
              "components": [
                {
                  "components": [
                    {
                      "internalType": "string",
                      "name": "name",
                      "type": "string"
                    },
                    {
                      "internalType": "enum MsgType",
                      "name": "msgType",
                      "type": "uint8"
                    },
                    {
                      "internalType": "bytes",
                      "name": "value",
                      "type": "bytes"
                    }
                  ],
                  "internalType": "struct PayloadItem[]",
                  "name": "items",
                  "type": "tuple[]"
                }
              ],
              "internalType": "struct Payload",
              "name": "data",
              "type": "tuple"
            },
            {
              "components": [
                {
                  "internalType": "uint256",
                  "name": "id",
                  "type": "uint256"
                },
                {
                  "internalType": "bytes",
                  "name": "callback",
                  "type": "bytes"
                }
              ],
              "internalType": "struct Session",
              "name": "session",
              "type": "tuple"
            },
            {
              "internalType": "bool",
              "name": "executed",
              "type": "bool"
            },
            {
              "internalType": "uint256",
              "name": "errorCode",
              "type": "uint256"
            }
          ],
          "internalType": "struct ReceivedMessage",
          "name": "",
          "type": "tuple"
        }
      ],
      "stateMutability": "view",
      "type": "function",
      "constant": true
    },
    {
      "inputs": [
        {
          "internalType": "string",
          "name": "_chainName",
          "type": "string"
        }
      ],
      "name": "getReceivedMessageNumber",
      "outputs": [
        {
          "internalType": "uint256",
          "name": "",
          "type": "uint256"
        }
      ],
      "stateMutability": "view",
      "type": "function",
      "constant": true
    },
    {
      "inputs": [
        {
          "internalType": "string",
          "name": "_chainName",
          "type": "string"
        },
        {
          "internalType": "uint256",
          "name": "_id",
          "type": "uint256"
        }
      ],
      "name": "getSentMessage",
      "outputs": [
        {
          "components": [
            {
              "internalType": "uint256",
              "name": "id",
              "type": "uint256"
            },
            {
              "internalType": "string",
              "name": "fromChain",
              "type": "string"
            },
            {
              "internalType": "string",
              "name": "toChain",
              "type": "string"
            },
            {
              "internalType": "address",
              "name": "sender",
              "type": "address"
            },
            {
              "internalType": "address",
              "name": "signer",
              "type": "address"
            },
            {
              "components": [
                {
                  "internalType": "enum SQoSType",
                  "name": "t",
                  "type": "uint8"
                },
                {
                  "internalType": "string",
                  "name": "v",
                  "type": "string"
                }
              ],
              "internalType": "struct SQoS[]",
              "name": "sqos",
              "type": "tuple[]"
            },
            {
              "components": [
                {
                  "internalType": "string",
                  "name": "contractAddress",
                  "type": "string"
                },
                {
                  "internalType": "string",
                  "name": "action",
                  "type": "string"
                },
                {
                  "components": [
                    {
                      "components": [
                        {
                          "internalType": "string",
                          "name": "name",
                          "type": "string"
                        },
                        {
                          "internalType": "enum MsgType",
                          "name": "msgType",
                          "type": "uint8"
                        },
                        {
                          "internalType": "bytes",
                          "name": "value",
                          "type": "bytes"
                        }
                      ],
                      "internalType": "struct PayloadItem[]",
                      "name": "items",
                      "type": "tuple[]"
                    }
                  ],
                  "internalType": "struct Payload",
                  "name": "data",
                  "type": "tuple"
                }
              ],
              "internalType": "struct Content",
              "name": "content",
              "type": "tuple"
            },
            {
              "components": [
                {
                  "internalType": "uint256",
                  "name": "id",
                  "type": "uint256"
                },
                {
                  "internalType": "bytes",
                  "name": "callback",
                  "type": "bytes"
                }
              ],
              "internalType": "struct Session",
              "name": "session",
              "type": "tuple"
            }
          ],
          "internalType": "struct SentMessage",
          "name": "",
          "type": "tuple"
        }
      ],
      "stateMutability": "view",
      "type": "function",
      "constant": true
    },
    {
      "inputs": [
        {
          "internalType": "string",
          "name": "_chainName",
          "type": "string"
        }
      ],
      "name": "getSentMessageNumber",
      "outputs": [
        {
          "internalType": "uint256",
          "name": "",
          "type": "uint256"
        }
      ],
      "stateMutability": "view",
      "type": "function",
      "constant": true
    },
    {
      "inputs": [
        {
          "internalType": "address",
          "name": "",
          "type": "address"
        }
      ],
      "name": "isPorter",
      "outputs": [
        {
          "internalType": "bool",
          "name": "",
          "type": "bool"
        }
      ],
      "stateMutability": "view",
      "type": "function",
      "constant": true
    },
    {
      "inputs": [],
      "name": "owner",
      "outputs": [
        {
          "internalType": "address",
          "name": "",
          "type": "address"
        }
      ],
      "stateMutability": "view",
      "type": "function",
      "constant": true
    },
    {
      "inputs": [
        {
          "internalType": "uint256",
          "name": "",
          "type": "uint256"
        }
      ],
      "name": "porters",
      "outputs": [
        {
          "internalType": "address",
          "name": "",
          "type": "address"
        }
      ],
      "stateMutability": "view",
      "type": "function",
      "constant": true
    },
    {
      "inputs": [],
      "name": "renounceOwnership",
      "outputs": [],
      "stateMutability": "nonpayable",
      "type": "function"
    },
    {
      "inputs": [],
      "name": "required",
      "outputs": [
        {
          "internalType": "uint256",
          "name": "",
          "type": "uint256"
        }
      ],
      "stateMutability": "view",
      "type": "function",
      "constant": true
    },
    {
      "inputs": [
        {
          "components": [
            {
              "internalType": "string",
              "name": "toChain",
              "type": "string"
            },
            {
              "components": [
                {
                  "internalType": "enum SQoSType",
                  "name": "t",
                  "type": "uint8"
                },
                {
                  "internalType": "string",
                  "name": "v",
                  "type": "string"
                }
              ],
              "internalType": "struct SQoS[]",
              "name": "sqos",
              "type": "tuple[]"
            },
            {
              "components": [
                {
                  "internalType": "string",
                  "name": "contractAddress",
                  "type": "string"
                },
                {
                  "internalType": "string",
                  "name": "action",
                  "type": "string"
                },
                {
                  "components": [
                    {
                      "components": [
                        {
                          "internalType": "string",
                          "name": "name",
                          "type": "string"
                        },
                        {
                          "internalType": "enum MsgType",
                          "name": "msgType",
                          "type": "uint8"
                        },
                        {
                          "internalType": "bytes",
                          "name": "value",
                          "type": "bytes"
                        }
                      ],
                      "internalType": "struct PayloadItem[]",
                      "name": "items",
                      "type": "tuple[]"
                    }
                  ],
                  "internalType": "struct Payload",
                  "name": "data",
                  "type": "tuple"
                }
              ],
              "internalType": "struct Content",
              "name": "content",
              "type": "tuple"
            },
            {
              "components": [
                {
                  "internalType": "uint256",
                  "name": "id",
                  "type": "uint256"
                },
                {
                  "internalType": "bytes",
                  "name": "callback",
                  "type": "bytes"
                }
              ],
              "internalType": "struct Session",
              "name": "session",
              "type": "tuple"
            }
          ],
          "internalType": "struct ISentMessage",
          "name": "_message",
          "type": "tuple"
        }
      ],
      "name": "sendMessage",
      "outputs": [
        {
          "internalType": "uint256",
          "name": "",
          "type": "uint256"
        }
      ],
      "stateMutability": "nonpayable",
      "type": "function"
    },
    {
      "inputs": [
        {
          "internalType": "address",
          "name": "_address",
          "type": "address"
        }
      ],
      "name": "setTokenContract",
      "outputs": [],
      "stateMutability": "nonpayable",
      "type": "function"
    },
    {
      "inputs": [
        {
          "internalType": "address",
          "name": "_address",
          "type": "address"
        }
      ],
      "name": "setVerifyContract",
      "outputs": [],
      "stateMutability": "nonpayable",
      "type": "function"
    },
    {
      "inputs": [],
      "name": "tokenContract",
      "outputs": [
        {
          "internalType": "contract DanteToken",
          "name": "",
          "type": "address"
        }
      ],
      "stateMutability": "view",
      "type": "function",
      "constant": true
    },
    {
      "inputs": [
        {
          "internalType": "address",
          "name": "newOwner",
          "type": "address"
        }
      ],
      "name": "transferOwnership",
      "outputs": [],
      "stateMutability": "nonpayable",
      "type": "function"
    },
    {
      "inputs": [],
      "name": "verifyContract",
      "outputs": [
        {
          "internalType": "contract MessageVerify",
          "name": "",
          "type": "address"
        }
      ],
      "stateMutability": "view",
      "type": "function",
      "constant": true
    },
    {
      "inputs": [
        {
          "internalType": "string",
          "name": "_fromChain",
          "type": "string"
        },
        {
          "internalType": "uint256",
          "name": "_id",
          "type": "uint256"
        },
        {
          "internalType": "bytes32",
          "name": "_hash",
          "type": "bytes32"
        }
      ],
      "name": "receiveHiddenMessage",
      "outputs": [],
      "stateMutability": "nonpayable",
      "type": "function"
    },
    {
      "inputs": [
        {
          "components": [
            {
              "internalType": "uint256",
              "name": "id",
              "type": "uint256"
            },
            {
              "internalType": "string",
              "name": "fromChain",
              "type": "string"
            },
            {
              "internalType": "string",
              "name": "sender",
              "type": "string"
            },
            {
              "internalType": "string",
              "name": "signer",
              "type": "string"
            },
            {
              "components": [
                {
                  "internalType": "enum SQoSType",
                  "name": "t",
                  "type": "uint8"
                },
                {
                  "internalType": "string",
                  "name": "v",
                  "type": "string"
                }
              ],
              "internalType": "struct SQoS[]",
              "name": "sqos",
              "type": "tuple[]"
            },
            {
              "internalType": "address",
              "name": "contractAddress",
              "type": "address"
            },
            {
              "internalType": "bytes4",
              "name": "action",
              "type": "bytes4"
            },
            {
              "components": [
                {
                  "components": [
                    {
                      "internalType": "string",
                      "name": "name",
                      "type": "string"
                    },
                    {
                      "internalType": "enum MsgType",
                      "name": "msgType",
                      "type": "uint8"
                    },
                    {
                      "internalType": "bytes",
                      "name": "value",
                      "type": "bytes"
                    }
                  ],
                  "internalType": "struct PayloadItem[]",
                  "name": "items",
                  "type": "tuple[]"
                }
              ],
              "internalType": "struct Payload",
              "name": "data",
              "type": "tuple"
            },
            {
              "components": [
                {
                  "internalType": "uint256",
                  "name": "id",
                  "type": "uint256"
                },
                {
                  "internalType": "bytes",
                  "name": "callback",
                  "type": "bytes"
                }
              ],
              "internalType": "struct Session",
              "name": "session",
              "type": "tuple"
            },
            {
              "internalType": "uint256",
              "name": "errorCode",
              "type": "uint256"
            }
          ],
          "internalType": "struct IReceivedMessage",
          "name": "_message",
          "type": "tuple"
        }
      ],
      "name": "revealMessage",
      "outputs": [],
      "stateMutability": "nonpayable",
      "type": "function"
    },
    {
      "inputs": [
        {
          "components": [
            {
              "internalType": "uint256",
              "name": "id",
              "type": "uint256"
            },
            {
              "internalType": "string",
              "name": "fromChain",
              "type": "string"
            },
            {
              "internalType": "string",
              "name": "sender",
              "type": "string"
            },
            {
              "internalType": "string",
              "name": "signer",
              "type": "string"
            },
            {
              "components": [
                {
                  "internalType": "enum SQoSType",
                  "name": "t",
                  "type": "uint8"
                },
                {
                  "internalType": "string",
                  "name": "v",
                  "type": "string"
                }
              ],
              "internalType": "struct SQoS[]",
              "name": "sqos",
              "type": "tuple[]"
            },
            {
              "internalType": "address",
              "name": "contractAddress",
              "type": "address"
            },
            {
              "internalType": "bytes4",
              "name": "action",
              "type": "bytes4"
            },
            {
              "components": [
                {
                  "components": [
                    {
                      "internalType": "string",
                      "name": "name",
                      "type": "string"
                    },
                    {
                      "internalType": "enum MsgType",
                      "name": "msgType",
                      "type": "uint8"
                    },
                    {
                      "internalType": "bytes",
                      "name": "value",
                      "type": "bytes"
                    }
                  ],
                  "internalType": "struct PayloadItem[]",
                  "name": "items",
                  "type": "tuple[]"
                }
              ],
              "internalType": "struct Payload",
              "name": "data",
              "type": "tuple"
            },
            {
              "components": [
                {
                  "internalType": "uint256",
                  "name": "id",
                  "type": "uint256"
                },
                {
                  "internalType": "bytes",
                  "name": "callback",
                  "type": "bytes"
                }
              ],
              "internalType": "struct Session",
              "name": "session",
              "type": "tuple"
            },
            {
              "internalType": "uint256",
              "name": "errorCode",
              "type": "uint256"
            }
          ],
          "internalType": "struct IReceivedMessage",
          "name": "_message",
          "type": "tuple"
        }
      ],
      "name": "receiveMessage",
      "outputs": [],
      "stateMutability": "nonpayable",
      "type": "function"
    },
    {
      "inputs": [
        {
          "internalType": "string",
          "name": "_fromChain",
          "type": "string"
        },
        {
          "internalType": "uint256",
          "name": "_id",
          "type": "uint256"
        }
      ],
      "name": "getFirstStageMessage",
      "outputs": [
        {
          "components": [
            {
              "components": [
                {
                  "internalType": "uint256",
                  "name": "id",
                  "type": "uint256"
                },
                {
                  "internalType": "string",
                  "name": "fromChain",
                  "type": "string"
                },
                {
                  "internalType": "bytes32",
                  "name": "hashData",
                  "type": "bytes32"
                },
                {
                  "internalType": "address",
                  "name": "porter",
                  "type": "address"
                }
              ],
              "internalType": "struct TwoPhaseCommitCrossChain.HiddenMessage[]",
              "name": "messages",
              "type": "tuple[]"
            },
            {
              "internalType": "enum TwoPhaseCommitCrossChain.StageStatus",
              "name": "stage",
              "type": "uint8"
            }
          ],
          "internalType": "struct TwoPhaseCommitCrossChain.FirstStageMessage",
          "name": "",
          "type": "tuple"
        }
      ],
      "stateMutability": "view",
      "type": "function",
      "constant": true
    },
    {
      "inputs": [
        {
          "internalType": "string",
          "name": "_toChain",
          "type": "string"
        }
      ],
      "name": "clearCrossChainMessage",
      "outputs": [],
      "stateMutability": "nonpayable",
      "type": "function"
    }
  ],
  "bytecode": "0x60806040523480156200001157600080fd5b50604051620058763803806200587683398101604081905262000034916200016c565b8080620000413362000060565b805162000056906001906020840190620000b0565b5050505062000285565b600080546001600160a01b038381166001600160a01b0319831681178455604051919092169283917f8be0079c531659141344cd1fd0a4f28419497f9722a3daafe3b4186f6b6457e09190a35050565b828054620000be9062000248565b90600052602060002090601f016020900481019282620000e257600085556200012d565b82601f10620000fd57805160ff19168380011785556200012d565b828001600101855582156200012d579182015b828111156200012d57825182559160200191906001019062000110565b506200013b9291506200013f565b5090565b5b808211156200013b576000815560010162000140565b634e487b7160e01b600052604160045260246000fd5b600060208083850312156200018057600080fd5b82516001600160401b03808211156200019857600080fd5b818501915085601f830112620001ad57600080fd5b815181811115620001c257620001c262000156565b604051601f8201601f19908116603f01168101908382118183101715620001ed57620001ed62000156565b8160405282815288868487010111156200020657600080fd5b600093505b828410156200022a57848401860151818501870152928501926200020b565b828411156200023c5760008684830101525b98975050505050505050565b600181811c908216806200025d57607f821691505b602082108114156200027f57634e487b7160e01b600052602260045260246000fd5b50919050565b6155e180620002956000396000f3fe608060405234801561001057600080fd5b50600436106101a95760003560e01c80639da9ef33116100f9578063bbcd5bbe11610097578063d815dcaa11610071578063d815dcaa146103ce578063dc8452cd146103e1578063debcd46e146103ea578063f2fde38b146103fd57600080fd5b8063bbcd5bbe14610388578063c38322141461039b578063ce700e80146103bb57600080fd5b8063a4b97e39116100d3578063a4b97e391461033c578063a6806f651461034f578063b46ca24c14610362578063b706d0041461037557600080fd5b80639da9ef33146102e35780639ebc33e4146102f6578063a0d948ea1461032957600080fd5b80634c2be98f11610166578063715018a611610140578063715018a6146102955780638da5cb5b1461029d5780638e3db313146102ae5780639af7a48c146102ce57600080fd5b80634c2be98f1461024457806355a373d61461026f5780636e0520a11461028257600080fd5b8063086615c2146101ae5780630bdac6f4146101d45780631c93b03a146101f45780632eb4358c14610209578063320befc81461021e5780634729914c14610231575b600080fd5b6101c16101bc3660046140d0565b610410565b6040519081526020015b60405180910390f35b6101e76101e2366004614111565b61043f565b6040516101cb91906141e2565b6101fc6105c9565b6040516101cb9190614290565b61021c6102173660046142a3565b610657565b005b61021c61022c3660046140d0565b610869565b6101c161023f36600461430f565b61097d565b610257610252366004614362565b610aa4565b6040516001600160a01b0390911681526020016101cb565b600254610257906001600160a01b031681565b6101c161029036600461437b565b610ace565b61021c610d22565b6000546001600160a01b0316610257565b6102c16102bc366004614111565b610d58565b6040516101cb919061454c565b6102d66113eb565b6040516101cb9190614626565b61021c6102f13660046146f7565b6117c8565b610319610304366004614771565b600e6020526000908152604090205460ff1681565b60405190151581526020016101cb565b601154610257906001600160a01b031681565b6101c161034a3660046140d0565b611998565b61021c61035d366004614771565b611a3e565b61021c6103703660046142a3565b611a8a565b61021c61038336600461478c565b611e32565b61021c610396366004614771565b611f0c565b6103ae6103a9366004614111565b611f58565b6040516101cb91906147c7565b61021c6103c9366004614111565b612561565b61021c6103dc36600461478c565b61288b565b6101c1600d5481565b6101c16103f83660046140d0565b612b55565b61021c61040b366004614771565b612b6a565b600080600384846040516104259291906148e4565b908152604051908190036020019020549150505b92915050565b610447613883565b601284846040516104599291906148e4565b908152604080519182900360209081018320600086815290825282812080546060938102860184018552938501848152909385939192859285015b828210156105855783829060005260206000209060040201604051806080016040529081600082015481526020016001820180546104d1906148f4565b80601f01602080910402602001604051908101604052809291908181526020018280546104fd906148f4565b801561054a5780601f1061051f5761010080835404028352916020019161054a565b820191906000526020600020905b81548152906001019060200180831161052d57829003601f168201915b505050918352505060028201546020808301919091526003909201546001600160a01b03166040909101529082526001929092019101610494565b50505090825250600182015460209091019060ff1660038111156105ab576105ab6141b8565b60038111156105bc576105bc6141b8565b90525090505b9392505050565b600180546105d6906148f4565b80601f0160208091040260200160405190810160405280929190818152602001828054610602906148f4565b801561064f5780601f106106245761010080835404028352916020019161064f565b820191906000526020600020905b81548152906001019060200180831161063257829003601f168201915b505050505081565b336000908152600e602052604090205460ff1661068f5760405162461bcd60e51b81526004016106869061492f565b60405180910390fd5b6000601085856040516106a39291906148e4565b90815260405190819003602001902080549091506106c2906001614988565b8311156106e15760405162461bcd60e51b8152600401610686906149a0565b6000600486866040516106f59291906148e4565b9081526040519081900360200190208054909150610714906001614988565b8410156107335760405162461bcd60e51b8152600401610686906149e3565b8154600090610743906001614988565b851415610762575081546001810183556000838152602090200161078b565b8261076e600187614a40565b8154811061077e5761077e614a57565b9060005260206000200190505b60005b815481101561080057336001600160a01b03168282815481106107b3576107b3614a57565b60009182526020909120600a600b9092020101546001600160a01b031614156107ee5760405162461bcd60e51b815260040161068690614a6d565b806107f881614ab4565b91505061078e565b50805460018181018355600083815260209020600b9092029091018681559061082c908201898961389d565b5060098101859055600a810180546001600160a01b03191633179055600d548254141561085f5761085f86898988612c05565b5050505050505050565b6000546001600160a01b031633146108935760405162461bcd60e51b815260040161068690614acf565b600382826040516108a59291906148e4565b908152602001604051809103902060006108bf9190613921565b600482826040516108d19291906148e4565b908152602001604051809103902060006108eb9190613942565b601082826040516108fd9291906148e4565b908152602001604051809103902060006109179190613963565b60005b601481101561097857601283836040516109359291906148e4565b90815260408051602092819003830190206000848152925281209061095a8282613981565b50600101805460ff191690558061097081614ab4565b91505061091a565b505050565b6001600160a01b0381166000908152600e602052604081205460ff166109a5575060006105c2565b6000601085856040516109b99291906148e4565b9081526020016040518091039020905060005b8154811015610a8d5760008282815481106109e9576109e9614a57565b9060005260206000200190506000805b8254811015610a5c57866001600160a01b0316838281548110610a1e57610a1e614a57565b60009182526020909120600a600b9092020101546001600160a01b03161415610a4a5760019150610a5c565b80610a5481614ab4565b9150506109f9565b5080610a7857610a6d836001614988565b9450505050506105c2565b50508080610a8590614ab4565b9150506109cc565b508054610a9b906001614988565b95945050505050565b600f8181548110610ab457600080fd5b6000918252602090912001546001600160a01b0316905081565b6000806003610add8480614b04565b604051610aeb9291906148e4565b9081526040516020918190038201902080546001808201808455600084815294909420600b909202909101928355805491935082810191610b2b906148f4565b610b369291906139a2565b50610b418480614b04565b610b4f91600284019161389d565b506003810180546001600160a01b0319908116331790915560048201805490911632179055610b816060850185614b4a565b60098201610b8f8282614ca0565b50610b9f90506040850185614d6d565b610ba99080614b04565b610bb791600684019161389d565b50610bc56040850185614d6d565b610bd3906020810190614b04565b610be191600784019161389d565b5060005b610bf26040860186614d6d565b610c00906040810190614d83565b610c0a9080614d99565b9050811015610c955760088201610c246040870187614d6d565b610c32906040810190614d83565b610c3c9080614d99565b83818110610c4c57610c4c614a57565b9050602002810190610c5e9190614d6d565b815460018101835560009283526020909220909160030201610c808282614f13565b50508080610c8d90614ab4565b915050610be5565b5060005b610ca66020860186614d99565b9050811015610d195760058201610cc06020870187614d99565b83818110610cd057610cd0614a57565b9050602002810190610ce29190614b4a565b815460018101835560009283526020909220909160020201610d048282614f2a565b50508080610d1190614ab4565b915050610c99565b50549392505050565b6000546001600160a01b03163314610d4c5760405162461bcd60e51b815260040161068690614acf565b610d566000612cba565b565b610d60613a1d565b600060038585604051610d749291906148e4565b908152604051908190036020019020905080610d91600185614a40565b81548110610da157610da1614a57565b90600052602060002090600b02016040518061010001604052908160008201548152602001600182018054610dd5906148f4565b80601f0160208091040260200160405190810160405280929190818152602001828054610e01906148f4565b8015610e4e5780601f10610e2357610100808354040283529160200191610e4e565b820191906000526020600020905b815481529060010190602001808311610e3157829003601f168201915b50505050508152602001600282018054610e67906148f4565b80601f0160208091040260200160405190810160405280929190818152602001828054610e93906148f4565b8015610ee05780601f10610eb557610100808354040283529160200191610ee0565b820191906000526020600020905b815481529060010190602001808311610ec357829003601f168201915b505050918352505060038201546001600160a01b039081166020808401919091526004840154909116604080840191909152600584018054825181850281018501909352808352606090940193919290919060009084015b828210156110285760008481526020902060408051808201909152600284029091018054829060ff166008811115610f7257610f726141b8565b6008811115610f8357610f836141b8565b8152602001600182018054610f97906148f4565b80601f0160208091040260200160405190810160405280929190818152602001828054610fc3906148f4565b80156110105780601f10610fe557610100808354040283529160200191611010565b820191906000526020600020905b815481529060010190602001808311610ff357829003601f168201915b50505050508152505081526020019060010190610f38565b50505050815260200160068201604051806060016040529081600082018054611050906148f4565b80601f016020809104026020016040519081016040528092919081815260200182805461107c906148f4565b80156110c95780601f1061109e576101008083540402835291602001916110c9565b820191906000526020600020905b8154815290600101906020018083116110ac57829003601f168201915b505050505081526020016001820180546110e2906148f4565b80601f016020809104026020016040519081016040528092919081815260200182805461110e906148f4565b801561115b5780601f106111305761010080835404028352916020019161115b565b820191906000526020600020905b81548152906001019060200180831161113e57829003601f168201915b505050505081526020016002820160405180602001604052908160008201805480602002602001604051908101604052809291908181526020016000905b8282101561132257838290600052602060002090600302016040518060600160405290816000820180546111cc906148f4565b80601f01602080910402602001604051908101604052809291908181526020018280546111f8906148f4565b80156112455780601f1061121a57610100808354040283529160200191611245565b820191906000526020600020905b81548152906001019060200180831161122857829003601f168201915b5050509183525050600182015460209091019060ff16601581111561126c5761126c6141b8565b601581111561127d5761127d6141b8565b8152602001600282018054611291906148f4565b80601f01602080910402602001604051908101604052809291908181526020018280546112bd906148f4565b801561130a5780601f106112df5761010080835404028352916020019161130a565b820191906000526020600020905b8154815290600101906020018083116112ed57829003601f168201915b50505050508152505081526020019060010190611199565b5050505081525050815250508152602001600982016040518060400160405290816000820154815260200160018201805461135c906148f4565b80601f0160208091040260200160405190810160405280929190818152602001828054611388906148f4565b80156113d55780601f106113aa576101008083540402835291602001916113d5565b820191906000526020600020905b8154815290600101906020018083116113b857829003601f168201915b5050509190925250505090525095945050505050565b6113f3613a8f565b60408051610100810190915260058054825260068054602084019190611418906148f4565b80601f0160208091040260200160405190810160405280929190818152602001828054611444906148f4565b80156114915780601f1061146657610100808354040283529160200191611491565b820191906000526020600020905b81548152906001019060200180831161147457829003601f168201915b505050505081526020016002820180546114aa906148f4565b80601f01602080910402602001604051908101604052809291908181526020018280546114d6906148f4565b80156115235780601f106114f857610100808354040283529160200191611523565b820191906000526020600020905b81548152906001019060200180831161150657829003601f168201915b5050505050815260200160038201805461153c906148f4565b80601f0160208091040260200160405190810160405280929190818152602001828054611568906148f4565b80156115b55780601f1061158a576101008083540402835291602001916115b5565b820191906000526020600020905b81548152906001019060200180831161159857829003601f168201915b5050505050815260200160048201805480602002602001604051908101604052809291908181526020016000905b828210156116d35760008481526020902060408051808201909152600284029091018054829060ff16600881111561161d5761161d6141b8565b600881111561162e5761162e6141b8565b8152602001600182018054611642906148f4565b80601f016020809104026020016040519081016040528092919081815260200182805461166e906148f4565b80156116bb5780601f10611690576101008083540402835291602001916116bb565b820191906000526020600020905b81548152906001019060200180831161169e57829003601f168201915b505050505081525050815260200190600101906115e3565b5050509082525060058201546001600160a01b038116602080840191909152600160a01b90910460e01b6001600160e01b03191660408084019190915280518082019091526006840180548252600785018054606090950194929391929184019161173d906148f4565b80601f0160208091040260200160405190810160405280929190818152602001828054611769906148f4565b80156117b65780601f1061178b576101008083540402835291602001916117b6565b820191906000526020600020905b81548152906001019060200180831161179957829003601f168201915b50505050508152505081525050905090565b6000546001600160a01b031633146117f25760405162461bcd60e51b815260040161068690614acf565b60005b600f5481101561185e576000600e6000600f848154811061181857611818614a57565b6000918252602080832091909101546001600160a01b031683528201929092526040019020805460ff19169115159190911790558061185681614ab4565b9150506117f5565b50600f548210156118d357600f5460009061187a908490614a40565b905060005b818110156118cc57600f80548061189857611898614f68565b600082815260209020810160001990810180546001600160a01b0319169055019055806118c481614ab4565b91505061187f565b5050611911565b600f546000906118e39084614a40565b905060005b8181101561190e57600f805460010181556000528061190681614ab4565b9150506118e8565b50505b60005b82811015611983576001600e600086868581811061193457611934614a57565b90506020020160208101906119499190614771565b6001600160a01b031681526020810191909152604001600020805460ff19169115159190911790558061197b81614ab4565b915050611914565b50611990600f8484613afc565b50600d555050565b600080600484846040516119ad9291906148e4565b9081526020016040518091039020905060005b8154811015611a335760008282815481106119dd576119dd614a57565b90600052602060002090600b0201905080600a01546000148015611a065750600981015460ff16155b15611a2057611a16826001614988565b9350505050610439565b5080611a2b81614ab4565b9150506119c0565b506000949350505050565b6000546001600160a01b03163314611a685760405162461bcd60e51b815260040161068690614acf565b601180546001600160a01b0319166001600160a01b0392909216919091179055565b336000908152600e602052604090205460ff16611ab95760405162461bcd60e51b81526004016106869061492f565b600060108585604051611acd9291906148e4565b9081526040519081900360200190208054909150611aec906001614988565b831115611b4a5760405162461bcd60e51b815260206004820152602660248201527f54776f5068617365436f6d6d697443726f7373436861696e3a206964206e6f74604482015265040dac2e8c6d60d31b6064820152608401610686565b600060048686604051611b5e9291906148e4565b9081526040519081900360200190208054909150611b7d906001614988565b841015611bf4576040805162461bcd60e51b81526020600482015260248101919091527f54776f5068617365436f6d6d697443726f7373436861696e3a206d657373616760448201527f65206f66207468697320696420686173206265656e20616767726567617465646064820152608401610686565b600060128787604051611c089291906148e4565b908152604080516020928190038301902060008881529281905290822090925090600182015460ff166003811115611c4257611c426141b8565b1415611c59576001818101805460ff191690911790555b60018082015460ff166003811115611c7357611c736141b8565b14611cc05760405162461bcd60e51b815260206004820152601960248201527f4974206973206e6f7420746865206669727374207374616765000000000000006044820152606401610686565b60005b8154811015611d725781543390839083908110611ce257611ce2614a57565b60009182526020909120600360049092020101546001600160a01b03161415611d605760405162461bcd60e51b815260206004820152602a60248201527f54776f5068617365436f6d6d697443726f7373436861696e3a206475706c6963604482015269185d194818dbdb5b5a5d60b21b6064820152608401610686565b80611d6a81614ab4565b915050611cc3565b50805460018181018355600083815260209020600490920290910187815590611d9e9082018a8a61389d565b50600281018690556003810180546001600160a01b03191633179055600d5482541415611e27576001828101805460ff191660021790558554600091611de49190614988565b881015611e2557836000611df960018b614a40565b815260200190815260200160002060008082016000611e189190613981565b50600101805460ff191690555b505b505050505050505050565b336000908152600e602052604090205460ff16611e615760405162461bcd60e51b81526004016106869061492f565b60006012611e726020840184614b04565b604051611e809291906148e4565b9081526040805160209281900383019020843560009081529281905291209091506002600182015460ff166003811115611ebc57611ebc6141b8565b1415611f035760405162461bcd60e51b8152602060048201526016602482015275497420697320746865207365636f6e6420737461676560501b6044820152606401610686565b61097883612d0a565b6000546001600160a01b03163314611f365760405162461bcd60e51b815260040161068690614acf565b600280546001600160a01b0319166001600160a01b0392909216919091179055565b611f60613b4f565b600060048585604051611f749291906148e4565b908152604051908190036020019020905080611f91600185614a40565b81548110611fa157611fa1614a57565b90600052602060002090600b02016040518061016001604052908160008201548152602001600182018054611fd5906148f4565b80601f0160208091040260200160405190810160405280929190818152602001828054612001906148f4565b801561204e5780601f106120235761010080835404028352916020019161204e565b820191906000526020600020905b81548152906001019060200180831161203157829003601f168201915b50505050508152602001600282018054612067906148f4565b80601f0160208091040260200160405190810160405280929190818152602001828054612093906148f4565b80156120e05780601f106120b5576101008083540402835291602001916120e0565b820191906000526020600020905b8154815290600101906020018083116120c357829003601f168201915b505050505081526020016003820180546120f9906148f4565b80601f0160208091040260200160405190810160405280929190818152602001828054612125906148f4565b80156121725780601f1061214757610100808354040283529160200191612172565b820191906000526020600020905b81548152906001019060200180831161215557829003601f168201915b5050505050815260200160048201805480602002602001604051908101604052809291908181526020016000905b828210156122905760008481526020902060408051808201909152600284029091018054829060ff1660088111156121da576121da6141b8565b60088111156121eb576121eb6141b8565b81526020016001820180546121ff906148f4565b80601f016020809104026020016040519081016040528092919081815260200182805461222b906148f4565b80156122785780601f1061224d57610100808354040283529160200191612278565b820191906000526020600020905b81548152906001019060200180831161225b57829003601f168201915b505050505081525050815260200190600101906121a0565b5050509082525060058201546001600160a01b038116602080840191909152600160a01b90910460e01b6001600160e01b031916604080840191909152805160068501805480850283018401845293820184815260609095019491939092849291849160009085015b82821015612482578382906000526020600020906003020160405180606001604052908160008201805461232c906148f4565b80601f0160208091040260200160405190810160405280929190818152602001828054612358906148f4565b80156123a55780601f1061237a576101008083540402835291602001916123a5565b820191906000526020600020905b81548152906001019060200180831161238857829003601f168201915b5050509183525050600182015460209091019060ff1660158111156123cc576123cc6141b8565b60158111156123dd576123dd6141b8565b81526020016002820180546123f1906148f4565b80601f016020809104026020016040519081016040528092919081815260200182805461241d906148f4565b801561246a5780601f1061243f5761010080835404028352916020019161246a565b820191906000526020600020905b81548152906001019060200180831161244d57829003601f168201915b505050505081525050815260200190600101906122f9565b5050505081525050815260200160078201604051806040016040529081600082015481526020016001820180546124b8906148f4565b80601f01602080910402602001604051908101604052809291908181526020018280546124e4906148f4565b80156125315780601f1061250657610100808354040283529160200191612531565b820191906000526020600020905b81548152906001019060200180831161251457829003601f168201915b505050919092525050508152600982015460ff1615156020820152600a9091015460409091015295945050505050565b6000600484846040516125759291906148e4565b9081526040519081900360200190209050600081612594600185614a40565b815481106125a4576125a4614a57565b60009182526020909120600b90910201600981015490915060ff161561260c5760405162461bcd60e51b815260206004820152601d60248201527f546865206d65737361676520686173206265656e2065786563757465640000006044820152606401610686565b60098101805460ff1916600117905560058101546040516000916126479188918891600160a01b90910460e01b90600287019060240161501e565b60408051601f198184030181529181526020820180516001600160e01b0316630c5ae33560e01b179052600584015490519192506000916001600160a01b039091169061269590849061505f565b6000604051808303816000865af19150503d80600081146126d2576040519150601f19603f3d011682016040523d82523d6000602084013e6126d7565b606091505b505083546005556001840180549192506006916126f3906148f4565b6126fe9291906139a2565b5060028301805460079190612712906148f4565b61271d9291906139a2565b5060038301805460089190612731906148f4565b61273c9291906139a2565b5060048301805461274f91600991613beb565b50600583018054600a80546001600160a01b039092166001600160a01b031983168117825592546001600160c01b0319909216909217600160a01b9182900463ffffffff16909102179055600783018054600b908155600885018054600c91906127b8906148f4565b6127c39291906139a2565b5050506005830154604051600160a01b90910460e01b906127eb906006860190602001615071565b60408051601f19818403018152908290526128099291602001615112565b60408051601f198184030181529082905260058501549093506000916001600160a01b039091169061283c90859061505f565b6000604051808303816000865af19150503d8060008114612879576040519150601f19603f3d011682016040523d82523d6000602084013e61287e565b606091505b5050505050505050505050565b6000601261289c6020840184614b04565b6040516128aa9291906148e4565b9081526040805160209281900383019020843560009081529252902090506002600182015460ff1660038111156128e3576128e36141b8565b146129305760405162461bcd60e51b815260206004820152601a60248201527f4974206973206e6f7420746865207365636f6e642073746167650000000000006044820152606401610686565b6000808260000160008154811061294957612949614a57565b9060005260206000209060040201905060005b83548110156129da578354339085908390811061297b5761297b614a57565b60009182526020909120600360049092020101546001600160a01b031614156129c8578360000181815481106129b3576129b3614a57565b90600052602060002090600402019150600192505b806129d281614ab4565b91505061295c565b5081612a365760405162461bcd60e51b815260206004820152602560248201527f506f7274657220646964206e6f742066696e6973682074686520666972737420604482015264737461676560d81b6064820152608401610686565b6000612a456040860186614b04565b612a526060880188614b04565b612a5f60808a018a614d99565b612a6f60c08c0160a08d01614771565b612a7f60e08d0160c08e01615143565b612a8c60e08e018e614d83565b33604051602001612aa69a999897969594939291906152c1565b6040516020818303038152906040528051906020012090508160020154811415612ad357612ad385612d0a565b60006004612ae46020880188614b04565b604051612af29291906148e4565b9081526020016040518091039020905085600001356004878060200190612b199190614b04565b604051612b279291906148e4565b908152604051908190036020019020541415612b4d5760018501805460ff191660031790555b505050505050565b600080600484846040516104259291906148e4565b6000546001600160a01b03163314612b945760405162461bcd60e51b815260040161068690614acf565b6001600160a01b038116612bf95760405162461bcd60e51b815260206004820152602660248201527f4f776e61626c653a206e6577206f776e657220697320746865207a65726f206160448201526564647265737360d01b6064820152608401610686565b612c0281612cba565b50565b600060048484604051612c199291906148e4565b9081526040519081900360200190208054909150612c38906001614988565b8514612c815760405162461bcd60e51b8152602060048201526018602482015277086e4dee6e686d0c2d2dc7440d2c840dcdee840dac2e8c6d60431b6044820152606401610686565b805460018181018355600083815260209020600b90920290910186815590612cac908201868661389d565b50600a019190915550505050565b600080546001600160a01b038381166001600160a01b0319831681178455604051919092169283917f8be0079c531659141344cd1fd0a4f28419497f9722a3daafe3b4186f6b6457e09190a35050565b60006010612d1b6020840184614b04565b604051612d299291906148e4565b9081526040519081900360200190208054909150612d48906001614988565b82351115612d685760405162461bcd60e51b8152600401610686906149a0565b60006004612d796020850185614b04565b604051612d879291906148e4565b9081526040519081900360200190208054909150612da6906001614988565b83351015612dc65760405162461bcd60e51b8152600401610686906149e3565b8154600090612dd6906001614988565b84351415612df65750815460018101835560008381526020902001612e20565b82612e0360018635614a40565b81548110612e1357612e13614a57565b9060005260206000200190505b60005b8154811015612e9557336001600160a01b0316828281548110612e4857612e48614a57565b60009182526020909120600a600b9092020101546001600160a01b03161415612e835760405162461bcd60e51b815260040161068690614a6d565b80612e8d81614ab4565b915050612e23565b50805460018101825560008281526020908190208635600b90930201918255612ec090860186614b04565b612ece91600184019161389d565b50612edc6040860186614b04565b612eea91600284019161389d565b50612ef86060860186614b04565b612f0691600384019161389d565b50612f1760c0860160a08701614771565b6005820180546001600160a01b0319166001600160a01b0392909216919091179055612f4960e0860160c08701615143565b60058201805463ffffffff60a01b1916600160a01b60e093841c02179055612f7390860186614d83565b60068201612f81828261542a565b50612f929050610100860186614b4a565b60078201612fa08282614ca0565b90505060005b612fb36080870187614d99565b9050811015612fce5780612fc681614ab4565b915050612fa6565b50600a810180546001600160a01b03191633179055600d54825414156135bf578154156135bf5760008260008154811061300a5761300a614a57565b90600052602060002090600b02016000016040518061014001604052908160008201548152602001600182018054613041906148f4565b80601f016020809104026020016040519081016040528092919081815260200182805461306d906148f4565b80156130ba5780601f1061308f576101008083540402835291602001916130ba565b820191906000526020600020905b81548152906001019060200180831161309d57829003601f168201915b505050505081526020016002820180546130d3906148f4565b80601f01602080910402602001604051908101604052809291908181526020018280546130ff906148f4565b801561314c5780601f106131215761010080835404028352916020019161314c565b820191906000526020600020905b81548152906001019060200180831161312f57829003601f168201915b50505050508152602001600382018054613165906148f4565b80601f0160208091040260200160405190810160405280929190818152602001828054613191906148f4565b80156131de5780601f106131b3576101008083540402835291602001916131de565b820191906000526020600020905b8154815290600101906020018083116131c157829003601f168201915b5050505050815260200160048201805480602002602001604051908101604052809291908181526020016000905b828210156132fc5760008481526020902060408051808201909152600284029091018054829060ff166008811115613246576132466141b8565b6008811115613257576132576141b8565b815260200160018201805461326b906148f4565b80601f0160208091040260200160405190810160405280929190818152602001828054613297906148f4565b80156132e45780601f106132b9576101008083540402835291602001916132e4565b820191906000526020600020905b8154815290600101906020018083116132c757829003601f168201915b5050505050815250508152602001906001019061320c565b5050509082525060058201546001600160a01b038116602080840191909152600160a01b90910460e01b6001600160e01b031916604080840191909152805160068501805480850283018401845293820184815260609095019491939092849291849160009085015b828210156134ee5783829060005260206000209060030201604051806060016040529081600082018054613398906148f4565b80601f01602080910402602001604051908101604052809291908181526020018280546133c4906148f4565b80156134115780601f106133e657610100808354040283529160200191613411565b820191906000526020600020905b8154815290600101906020018083116133f457829003601f168201915b5050509183525050600182015460209091019060ff166015811115613438576134386141b8565b6015811115613449576134496141b8565b815260200160028201805461345d906148f4565b80601f0160208091040260200160405190810160405280929190818152602001828054613489906148f4565b80156134d65780601f106134ab576101008083540402835291602001916134d6565b820191906000526020600020905b8154815290600101906020018083116134b957829003601f168201915b50505050508152505081526020019060010190613365565b505050508152505081526020016007820160405180604001604052908160008201548152602001600182018054613524906148f4565b80601f0160208091040260200160405190810160405280929190818152602001828054613550906148f4565b801561359d5780601f106135725761010080835404028352916020019161359d565b820191906000526020600020905b81548152906001019060200180831161358057829003601f168201915b50505050508152505081526020016009820154815250509050612b4d816135c6565b5050505050565b6000600482602001516040516135dc919061505f565b90815260405190819003602001902080549091506135fb906001614988565b8251146136455760405162461bcd60e51b8152602060048201526018602482015277086e4dee6e686d0c2d2dc7440d2c840dcdee840dac2e8c6d60431b6044820152606401610686565b80546001818101835560008381526020908190208551600b9094020192835584810151805161367b938501929190910190613c88565b5060408301518051613697916002840191602090910190613c88565b50606083015180516136b3916003840191602090910190613c88565b5060a083015160058201805460c086015160e01c600160a01b026001600160c01b03199091166001600160a01b039093169290921791909117905560005b60e084015151518110156137b45760e08401515180516006840191908390811061371d5761371d614a57565b60209081029190910181015182546001810184556000938452928290208151805192946003029091019261375692849290910190613c88565b50602082015160018083018054909160ff199091169083601581111561377e5761377e6141b8565b02179055506040820151805161379e916002840191602090910190613c88565b50505080806137ac90614ab4565b9150506136f1565b5060005b83608001515181101561385b5781600401846080015182815181106137df576137df614a57565b60209081029190910181015182546001818101855560009485529290932081516002909402018054919390929091839160ff1990911690836008811115613828576138286141b8565b021790555060208281015180516138459260018501920190613c88565b505050808061385390614ab4565b9150506137b8565b506101008301518051600783019081556020808301518051612b4d9260088701920190613c88565b60408051808201909152606081526020810160005b905290565b8280546138a9906148f4565b90600052602060002090601f0160209004810192826138cb5760008555613911565b82601f106138e45782800160ff19823516178555613911565b82800160010185558215613911579182015b828111156139115782358255916020019190600101906138f6565b5061391d929150613cfc565b5090565b50805460008255600b0290600052602060002090810190612c029190613d11565b50805460008255600b0290600052602060002090810190612c029190613dbc565b5080546000825590600052602060002090810190612c029190613e59565b5080546000825560040290600052602060002090810190612c029190613e76565b8280546139ae906148f4565b90600052602060002090601f0160209004810192826139d05760008555613911565b82601f106139e15780548555613911565b8280016001018555821561391157600052602060002091601f016020900482015b82811115613911578254825591600101919060010190613a02565b60405180610100016040528060008152602001606081526020016060815260200160006001600160a01b0316815260200160006001600160a01b0316815260200160608152602001613a6d613eb2565b8152602001613898604051806040016040528060008152602001606081525090565b604051806101000160405280600081526020016060815260200160608152602001606081526020016060815260200160006001600160a01b0316815260200160006001600160e01b0319168152602001613898604051806040016040528060008152602001606081525090565b828054828255906000526020600020908101928215613911579160200282015b828111156139115781546001600160a01b0319166001600160a01b03843516178255602090920191600190910190613b1c565b604051806101600160405280600081526020016060815260200160608152602001606081526020016060815260200160006001600160a01b0316815260200160006001600160e01b0319168152602001613bb56040518060200160405280606081525090565b8152602001613bd7604051806040016040528060008152602001606081525090565b815260006020820181905260409091015290565b828054828255906000526020600020906002028101928215613c7c5760005260206000209160020282015b82811115613c7c57825482548491849160ff90911690829060ff19166001836008811115613c4657613c466141b8565b02179055506001820181600101908054613c5f906148f4565b613c6a9291906139a2565b50505091600201919060020190613c16565b5061391d929150613ee1565b828054613c94906148f4565b90600052602060002090601f016020900481019282613cb65760008555613911565b82601f10613ccf57805160ff1916838001178555613911565b82800160010185558215613911579182015b82811115613911578251825591602001919060010190613ce1565b5b8082111561391d5760008155600101613cfd565b8082111561391d576000808255613d2b6001830182613f09565b613d39600283016000613f09565b6003820180546001600160a01b03199081169091556004830180549091169055613d67600583016000613f43565b600682016000613d778282613f09565b613d85600183016000613f09565b600282016000613d958282613f64565b505060006009850181815592509050613db1600a850182613f09565b505050600b01613d11565b8082111561391d576000808255613dd66001830182613f09565b613de4600283016000613f09565b613df2600383016000613f09565b613e00600483016000613f43565b6005820180546001600160c01b0319169055600682016000613e228282613f64565b505060006007830181815590613e3b6008850182613f09565b50505060098101805460ff191690556000600a820155600b01613dbc565b8082111561391d576000613e6d8282613f85565b50600101613e59565b8082111561391d576000808255613e906001830182613f09565b50600060028201556003810180546001600160a01b0319169055600401613e76565b604051806060016040528060608152602001606081526020016138986040518060200160405280606081525090565b8082111561391d57805460ff191681556000613f006001830182613f09565b50600201613ee1565b508054613f15906148f4565b6000825580601f10613f25575050565b601f016020900490600052602060002090810190612c029190613cfc565b5080546000825560020290600052602060002090810190612c029190613ee1565b5080546000825560030290600052602060002090810190612c029190613fa6565b50805460008255600b0290600052602060002090810190612c029190613fdd565b8082111561391d576000613fba8282613f09565b60018201805460ff19169055613fd4600283016000613f09565b50600301613fa6565b8082111561391d5760008082558181613ff96001830182613f09565b614007600283016000613f09565b614015600383016000613f09565b614023600483016000613f43565b6005820180546001600160c01b03191690556006820160006140458282613f64565b50506000600783018181559061405e6008850182613f09565b50506000600992909201919091555050600a810180546001600160a01b0319169055600b01613fdd565b60008083601f84011261409a57600080fd5b5081356001600160401b038111156140b157600080fd5b6020830191508360208285010111156140c957600080fd5b9250929050565b600080602083850312156140e357600080fd5b82356001600160401b038111156140f957600080fd5b61410585828601614088565b90969095509350505050565b60008060006040848603121561412657600080fd5b83356001600160401b0381111561413c57600080fd5b61414886828701614088565b909790965060209590950135949350505050565b60005b8381101561417757818101518382015260200161415f565b83811115614186576000848401525b50505050565b600081518084526141a481602086016020860161415c565b601f01601f19169290920160200192915050565b634e487b7160e01b600052602160045260246000fd5b600481106141de576141de6141b8565b9052565b600060208083526060808401855160408085880152828251808552608094508489019150848160051b8a0101878501945060005b8281101561427057607f198b830301845285518051835289810151888b8501526142428985018261418c565b8288015185890152918a01516001600160a01b0316938a019390935295890195938901939150600101614216565b50968a0151966142828a8501896141ce565b9a9950505050505050505050565b6020815260006105c2602083018461418c565b600080600080606085870312156142b957600080fd5b84356001600160401b038111156142cf57600080fd5b6142db87828801614088565b90989097506020870135966040013595509350505050565b80356001600160a01b038116811461430a57600080fd5b919050565b60008060006040848603121561432457600080fd5b83356001600160401b0381111561433a57600080fd5b61434686828701614088565b90945092506143599050602085016142f3565b90509250925092565b60006020828403121561437457600080fd5b5035919050565b60006020828403121561438d57600080fd5b81356001600160401b038111156143a357600080fd5b8201608081850312156105c257600080fd5b600981106141de576141de6141b8565b6000815180845260208085019450848260051b860182860160005b85811015614427578383038952815160406143fc8583516143b5565b86820151915080878601526144138186018361418c565b9a87019a94505050908401906001016143e0565b5090979650505050505050565b601681106141de576141de6141b8565b8051602080845281518482018190526000926040919083019082870190600581901b88018401865b828110156144d057603f198a83030184528451606081518185526144928286018261418c565b915050888201516144a58a860182614434565b509087015183820384890152906144bc818361418c565b96890196958901959350505060010161446c565b5098975050505050505050565b60008151606084526144f2606085018261418c565b90506020830151848203602086015261450b828261418c565b91505060408301518482036040860152610a9b8282614444565b805182526000602082015160406020850152614544604085018261418c565b949350505050565b60208152815160208201526000602083015161010080604085015261457561012085018361418c565b91506040850151601f1980868503016060870152614593848361418c565b9350606087015191506145b160808701836001600160a01b03169052565b60808701516001600160a01b03811660a0880152915060a08701519150808685030160c08701526145e284836143c5565b935060c08701519150808685030160e08701526145ff84836144dd565b935060e087015191508086850301838701525061461c8382614525565b9695505050505050565b60208152815160208201526000602083015161010080604085015261464f61012085018361418c565b91506040850151601f198086850301606087015261466d848361418c565b9350606087015191508086850301608087015261468a848361418c565b935060808701519150808685030160a08701526146a784836143c5565b935060a087015191506146c560c08701836001600160a01b03169052565b60c08701516001600160e01b0319811660e0880152915060e087015191508086850301838701525061461c8382614525565b60008060006040848603121561470c57600080fd5b83356001600160401b038082111561472357600080fd5b818601915086601f83011261473757600080fd5b81358181111561474657600080fd5b8760208260051b850101111561475b57600080fd5b6020928301989097509590910135949350505050565b60006020828403121561478357600080fd5b6105c2826142f3565b60006020828403121561479e57600080fd5b81356001600160401b038111156147b457600080fd5b820161014081850312156105c257600080fd5b6020815281516020820152600060208301516101608060408501526147f061018085018361418c565b91506040850151601f198086850301606087015261480e848361418c565b9350606087015191508086850301608087015261482b848361418c565b935060808701519150808685030160a087015261484884836143c5565b935060a0870151915061486660c08701836001600160a01b03169052565b60c08701516001600160e01b0319811660e0880152915060e0870151915061010081878603018188015261489a8584614444565b9450808801519250506101208187860301818801526148b98584614525565b945080880151925050506101406148d38187018315159052565b959095015193019290925250919050565b8183823760009101908152919050565b600181811c9082168061490857607f821691505b6020821081141561492957634e487b7160e01b600052602260045260246000fd5b50919050565b60208082526023908201527f4d756c7469506f72746572733a20706f72746572206e6f7420726567697374656040820152621c995960ea1b606082015260800190565b634e487b7160e01b600052601160045260246000fd5b6000821982111561499b5761499b614972565b500190565b60208082526023908201527f4d756c7469506f7274657243726f7373436861696e3a206964206e6f74206d616040820152620e8c6d60eb1b606082015260800190565b6020808252603d908201527f4d756c7469506f7274657243726f7373436861696e3a206d657373616765206f60408201527f66207468697320696420686173206265656e2061676772656761746564000000606082015260800190565b600082821015614a5257614a52614972565b500390565b634e487b7160e01b600052603260045260246000fd5b60208082526027908201527f4d756c7469506f7274657243726f7373436861696e3a206475706c69636174656040820152660818dbdb5b5a5d60ca1b606082015260800190565b6000600019821415614ac857614ac8614972565b5060010190565b6020808252818101527f4f776e61626c653a2063616c6c6572206973206e6f7420746865206f776e6572604082015260600190565b6000808335601e19843603018112614b1b57600080fd5b8301803591506001600160401b03821115614b3557600080fd5b6020019150368190038213156140c957600080fd5b60008235603e19833603018112614b6057600080fd5b9190910192915050565b634e487b7160e01b600052604160045260246000fd5b5b81811015614b955760008155600101614b81565b5050565b601f82111561097857806000526020600020601f840160051c81016020851015614bc05750805b6135bf601f850160051c830182614b80565b600019600383901b1c191660019190911b1790565b6001600160401b03831115614bfe57614bfe614b6a565b614c1283614c0c83546148f4565b83614b99565b6000601f841160018114614c405760008515614c2e5750838201355b614c388682614bd2565b8455506135bf565b600083815260209020601f19861690835b82811015614c715786850135825560209485019460019092019101614c51565b5086821015614c8e5760001960f88860031b161c19848701351681555b505060018560011b0183555050505050565b8135815560018082016020614cb781860186614b04565b6001600160401b03811115614cce57614cce614b6a565b614ce281614cdc86546148f4565b86614b99565b6000601f821160018114614d105760008315614cfe5750838201355b614d088482614bd2565b875550611e27565b600086815260209020601f19841690835b82811015614d3e5786850135825593870193908901908701614d21565b5084821015614d5b5760001960f88660031b161c19848701351681555b50505050841b90930190915550505050565b60008235605e19833603018112614b6057600080fd5b60008235601e19833603018112614b6057600080fd5b6000808335601e19843603018112614db057600080fd5b8301803591506001600160401b03821115614dca57600080fd5b6020019150600581901b36038213156140c957600080fd5b60168110612c0257600080fd5b6000813561043981614de2565b60168210614e0c57614e0c6141b8565b60ff1981541660ff831681178255505050565b614e298283614b04565b6001600160401b03811115614e4057614e40614b6a565b614e5481614e4e85546148f4565b85614b99565b6000601f821160018114614e825760008315614e705750838201355b614e7a8482614bd2565b865550614edc565b600085815260209020601f19841690835b82811015614eb35786850135825560209485019460019092019101614e93565b5084821015614ed05760001960f88660031b161c19848701351681555b505060018360011b0185555b50505050614ef8614eef60208401614def565b60018301614dfc565b614f056040830183614b04565b614186818360028601614be7565b614b958282614e1f565b60098110612c0257600080fd5b8135614f3581614f1d565b60098110614f4557614f456141b8565b60ff1982541660ff821681178355505060018082016020614cb781860186614b04565b634e487b7160e01b600052603160045260246000fd5b81835281816020850137506000828201602090810191909152601f909101601f19169091010190565b60008154614fb4816148f4565b808552602060018381168015614fd15760018114614fe557615013565b60ff19851688840152604088019550615013565b866000528260002060005b8581101561500b5781548a8201860152908301908401614ff0565b890184019650505b505050505092915050565b606081526000615032606083018688614f7e565b6001600160e01b03198516602084015282810360408401526150548185614fa7565b979650505050505050565b60008251614b6081846020870161415c565b6000602080835260408084018283860152808654808352606092508287019150828160051b880101886000528560002060005b8381101561510357898303605f190185528583526150c486840183614fa7565b60ff6001840154166150d88a860182614434565b50838103888501526150ed8160028501614fa7565b95890195935050600391909101906001016150a4565b50909998505050505050505050565b6001600160e01b031983168152815160009061513581600485016020870161415c565b919091016004019392505050565b60006020828403121561515557600080fd5b81356001600160e01b0319811681146105c257600080fd5b6000808335601e1984360301811261518457600080fd5b83016020810192503590506001600160401b038111156151a357600080fd5b8036038313156140c957600080fd5b600060208084018335601e198536030181126151cd57600080fd5b840180356001600160401b038111156151e557600080fd5b8060051b8036038713156151f857600080fd5b848852928190526040928701830183880183860160008036879003607e19015b868210156152b0578c8603603f190185528335818112615236578384fd5b88018a81016060615247828061516d565b828b52615257838c018284614f7e565b9150508c84013561526781614de2565b6152738f8c0182614434565b506152808285018461516d565b945092508981038d8b0152615296818585614f7e565b99505050958b019550509289019260019190910190615218565b50939b9a5050505050505050505050565b60e0815260006152d560e083018c8e614f7e565b6020838203818501526152e9828c8e614f7e565b8481036040860152898152915080820160058a901b830182018b60005b8c81101561537a57858303601f190184528135368f9003603e1901811261532c57600080fd5b8e01803561533981614f1d565b61534385826143b5565b506153508682018261516d565b9150604087860152615366604086018383614f7e565b958701959450505090840190600101615306565b50506001600160a01b038a1660608701526001600160e01b03198916608087015285810360a08701526153ad81896151b2565b9450505050506153c860c08301846001600160a01b03169052565b9b9a5050505050505050505050565b6153e181546148f4565b8015614b9557601f8111600181146153fb57505060009055565b600083815260208120615419601f850160051c820160018301614b80565b508381526020812081855555505050565b8135601e1983360301811261543e57600080fd5b820180356001600160401b0381111561545657600080fd5b602091820191600582811b360384131561546f57600080fd5b6801000000000000000083111561548857615488614b6a565b84548386558084101561556f577f555555555555555555555555555555555555555555555555555555555555555560018183118116156154ca576154ca614972565b60038287118216156154de576154de614972565b6000898152868120909350878202810190828602015b808210156155695761550682546148f4565b801561554e57601f808211600181146155215787855561554b565b60008581526020902061553c8385018c1c8201898301614b80565b50600085815260208120818755555b50505b508484830155615560600283016153d7565b908201906154f4565b50505050505b505060008481526020812084915b8481101561085f576155986155928488614d6d565b83614e1f565b918301916003919091019060010161557d56fea26469706673582212200bfe534f8534746dd5de3e89399ad4105eebf59e549136444528e86f2498cd5c64736f6c634300080a0033",
  "immutableReferences": {},
  "source": "// SPDX-License-Identifier: MIT\npragma solidity >=0.8.0 <0.9.0;\n\nimport \"./MultiPorterCrossChain.sol\";\nimport \"../interfaces/ITwoPhaseCommitCrossChain.sol\";\n\ncontract TwoPhaseCommitCrossChain is ITwoPhaseCommitCrossChain, MultiPorterCrossChain {\n    enum StageStatus {\n        None,\n        First,\n        Second,\n        Done\n    }\n\n    struct HiddenMessage {\n        uint256 id;\n        string fromChain;\n        bytes32 hashData;\n        address porter;\n    }\n\n    struct FirstStageMessage {\n        HiddenMessage[] messages;\n        StageStatus stage;\n    }\n\n    mapping(string => mapping(uint256 => FirstStageMessage)) internal hiddenMessageTable;\n\n    constructor(string memory _chainName) MultiPorterCrossChain(_chainName) {\n    }\n\n    function receiveHiddenMessage(string calldata _fromChain, uint _id, bytes32 _hash) override external onlyPorter {\n        cachedReceivedMessage[][] storage cachedChainMessage = cachedReceivedMessageTable[_fromChain];\n        require(_id <= cachedChainMessage.length + 1, \"TwoPhaseCommitCrossChain: id not match\");\n\n        ReceivedMessage[] storage receivedChainMessage = receivedMessageTable[_fromChain];\n        require(_id >= receivedChainMessage.length + 1, \"TwoPhaseCommitCrossChain: message of this id has been aggregated\");\n        \n        mapping(uint256 => FirstStageMessage) storage chainMessage = hiddenMessageTable[_fromChain];\n        FirstStageMessage storage firstStageMessage = chainMessage[_id];\n\n        if (firstStageMessage.stage == StageStatus.None) {\n            firstStageMessage.stage = StageStatus.First;\n        }\n        require(firstStageMessage.stage == StageStatus.First, \"It is not the first stage\");\n\n        // check duplicate commit\n        for (uint i = 0; i < firstStageMessage.messages.length; i++) {\n            if (firstStageMessage.messages[i].porter == msg.sender) {\n                revert(\"TwoPhaseCommitCrossChain: duplicate commit\");\n            }\n        }\n        // add message\n        HiddenMessage storage m = firstStageMessage.messages.push();\n        m.id = _id;\n        m.fromChain = _fromChain;\n        m.hashData = _hash;\n        m.porter = msg.sender;\n\n        // check if trigger second stage commit\n        if (firstStageMessage.messages.length == required) {\n            firstStageMessage.stage = StageStatus.Second;\n            // clear received messages, currently not punish\n            cachedReceivedMessage[] storage cachedMessages;\n            if (_id < cachedChainMessage.length + 1) {\n                delete chainMessage[_id - 1];\n            }\n        }\n    }\n\n    function revealMessage(IReceivedMessage calldata _message) override external {\n        FirstStageMessage storage firstStageMessage = hiddenMessageTable[_message.fromChain][_message.id];\n        require(firstStageMessage.stage == StageStatus.Second, \"It is not the second stage\");\n\n        // if sender finish the first stage\n        bool finished = false;\n        HiddenMessage storage m = firstStageMessage.messages[0];\n        for (uint i = 0; i < firstStageMessage.messages.length; i++) {\n            if (firstStageMessage.messages[i].porter == msg.sender) {\n                m = firstStageMessage.messages[i];\n                finished = true;\n            }\n        }\n        require(finished, \"Porter did not finish the first stage\");\n\n        // hash verify\n        bytes32 h = keccak256(abi.encode(_message.sender, _message.signer, _message.sqos, _message.contractAddress, _message.action, _message.data, msg.sender));\n        \n        if (h == m.hashData) {\n            // verify successfully\n            _receivePorterMessage(_message);\n        }\n\n        ReceivedMessage[] storage receivedChainMessage = receivedMessageTable[_message.fromChain];\n        if (receivedMessageTable[_message.fromChain].length == _message.id) {\n            // aggregated\n            firstStageMessage.stage = StageStatus.Done;\n        }\n    }\n\n    function receiveMessage(IReceivedMessage calldata _message) virtual override external onlyPorter {\n        mapping(uint256 => FirstStageMessage) storage chainMessage = hiddenMessageTable[_message.fromChain];\n        FirstStageMessage storage firstStageMessage = chainMessage[_message.id];\n        require(firstStageMessage.stage != StageStatus.Second, \"It is the second stage\");\n        _receivePorterMessage(_message);\n    }\n\n    function getFirstStageMessage(string calldata _fromChain, uint256 _id) view external returns (FirstStageMessage memory) {\n        return hiddenMessageTable[_fromChain][_id];\n    }\n\n    function clearCrossChainMessage(string calldata _toChain) external onlyOwner {\n        delete sentMessageTable[_toChain];\n        delete receivedMessageTable[_toChain];\n        delete cachedReceivedMessageTable[_toChain];\n        for (uint i = 0; i < 20; i++) {\n            delete hiddenMessageTable[_toChain][i];\n        }\n    }\n}",
  "sourcePath": "/home/george/program/dante/dante-cross-chain/avalanche/contracts/crossChain/TwoPhaseCommitCrossChain.sol",
  "compiler": {
    "name": "solc",
    "version": "0.8.10+commit.fc410830.Emscripten.clang"
  },
  "schemaVersion": "3.4.6",
  "updatedAt": "2022-07-05T08:34:08.876Z",
  "networkType": "ethereum",
  "devdoc": {
    "kind": "dev",
    "methods": {
      "abandonMessage(string,uint256,uint256)": {
        "details": "See ICrossChain."
      },
      "changePortersAndRequirement(address[],uint256)": {
        "details": "Changes porters and requirement."
      },
      "executeMessage(string,uint256)": {
        "details": "See ICrossChain."
      },
      "getCurrentMessage()": {
        "details": "See ICrossChain."
      },
      "getExecutableMessageId(string)": {
        "details": "See ICrossChain."
      },
      "getMsgPortingTask(string,address)": {
        "details": "Returns the id of the message which the account `_porter` must port from the chain `_chainName`."
      },
      "getReceivedMessage(string,uint256)": {
        "details": "See ICrossChain."
      },
      "getReceivedMessageNumber(string)": {
        "details": "See ICrossChain."
      },
      "getSentMessage(string,uint256)": {
        "details": "See ICrossChain."
      },
      "getSentMessageNumber(string)": {
        "details": "See ICrossChain."
      },
      "owner()": {
        "details": "Returns the address of the current owner."
      },
      "receiveMessage((uint256,string,string,string,(uint8,string)[],address,bytes4,((string,uint8,bytes)[]),(uint256,bytes),uint256))": {
        "details": "See ICrossChain."
      },
      "renounceOwnership()": {
        "details": "Leaves the contract without owner. It will not be possible to call `onlyOwner` functions anymore. Can only be called by the current owner. NOTE: Renouncing ownership will leave the contract without an owner, thereby removing any functionality that is only available to the owner."
      },
      "sendMessage((string,(uint8,string)[],(string,string,((string,uint8,bytes)[])),(uint256,bytes)))": {
        "details": "See ICrossChain."
      },
      "setTokenContract(address)": {
        "details": "See ICrossChain."
      },
      "setVerifyContract(address)": {
        "details": "Sets address of MessageVerify contract."
      },
      "transferOwnership(address)": {
        "details": "Transfers ownership of the contract to a new account (`newOwner`). Can only be called by the current owner."
      }
    },
    "version": 1
  },
  "userdoc": {
    "kind": "user",
    "methods": {},
    "version": 1
  }
}